{
  "_format": "hh-sol-artifact-1",
  "contractName": "ApesNFT",
  "sourceName": "contracts/Apes (2).sol",
  "abi": [
    {
      "anonymous": false,
      "inputs": [
        {
          "indexed": true,
          "internalType": "address",
          "name": "user",
          "type": "address"
        },
        {
          "indexed": true,
          "internalType": "uint256",
          "name": "tokenId",
          "type": "uint256"
        },
        {
          "indexed": true,
          "internalType": "uint256",
          "name": "aType",
          "type": "uint256"
        }
      ],
      "name": "ApesMinted",
      "type": "event"
    },
    {
      "anonymous": false,
      "inputs": [
        {
          "indexed": true,
          "internalType": "address",
          "name": "owner",
          "type": "address"
        },
        {
          "indexed": true,
          "internalType": "address",
          "name": "approved",
          "type": "address"
        },
        {
          "indexed": true,
          "internalType": "uint256",
          "name": "tokenId",
          "type": "uint256"
        }
      ],
      "name": "Approval",
      "type": "event"
    },
    {
      "anonymous": false,
      "inputs": [
        {
          "indexed": true,
          "internalType": "address",
          "name": "owner",
          "type": "address"
        },
        {
          "indexed": true,
          "internalType": "address",
          "name": "operator",
          "type": "address"
        },
        {
          "indexed": false,
          "internalType": "bool",
          "name": "approved",
          "type": "bool"
        }
      ],
      "name": "ApprovalForAll",
      "type": "event"
    },
    {
      "anonymous": false,
      "inputs": [
        {
          "indexed": true,
          "internalType": "address",
          "name": "previousOwner",
          "type": "address"
        },
        {
          "indexed": true,
          "internalType": "address",
          "name": "newOwner",
          "type": "address"
        }
      ],
      "name": "OwnershipTransferred",
      "type": "event"
    },
    {
      "anonymous": false,
      "inputs": [
        {
          "indexed": true,
          "internalType": "address",
          "name": "from",
          "type": "address"
        },
        {
          "indexed": true,
          "internalType": "address",
          "name": "to",
          "type": "address"
        },
        {
          "indexed": true,
          "internalType": "uint256",
          "name": "tokenId",
          "type": "uint256"
        }
      ],
      "name": "Transfer",
      "type": "event"
    },
    {
      "inputs": [],
      "name": "BREED_PRICE",
      "outputs": [
        {
          "internalType": "uint256",
          "name": "",
          "type": "uint256"
        }
      ],
      "stateMutability": "view",
      "type": "function"
    },
    {
      "inputs": [],
      "name": "DENOMINATOR",
      "outputs": [
        {
          "internalType": "uint256",
          "name": "",
          "type": "uint256"
        }
      ],
      "stateMutability": "view",
      "type": "function"
    },
    {
      "inputs": [],
      "name": "EVOLVE_PRICE",
      "outputs": [
        {
          "internalType": "uint256",
          "name": "",
          "type": "uint256"
        }
      ],
      "stateMutability": "view",
      "type": "function"
    },
    {
      "inputs": [],
      "name": "MAX_APES_PURCHASE",
      "outputs": [
        {
          "internalType": "uint256",
          "name": "",
          "type": "uint256"
        }
      ],
      "stateMutability": "view",
      "type": "function"
    },
    {
      "inputs": [],
      "name": "MAX_FREE_FOR_USER",
      "outputs": [
        {
          "internalType": "uint256",
          "name": "",
          "type": "uint256"
        }
      ],
      "stateMutability": "view",
      "type": "function"
    },
    {
      "inputs": [],
      "name": "MAX_SUPPLY_FOR_FREE",
      "outputs": [
        {
          "internalType": "uint256",
          "name": "",
          "type": "uint256"
        }
      ],
      "stateMutability": "view",
      "type": "function"
    },
    {
      "inputs": [],
      "name": "MINT_PRICE",
      "outputs": [
        {
          "internalType": "uint256",
          "name": "",
          "type": "uint256"
        }
      ],
      "stateMutability": "view",
      "type": "function"
    },
    {
      "inputs": [],
      "name": "_baseTokenURI",
      "outputs": [
        {
          "internalType": "string",
          "name": "",
          "type": "string"
        }
      ],
      "stateMutability": "view",
      "type": "function"
    },
    {
      "inputs": [
        {
          "internalType": "uint256",
          "name": "_parent",
          "type": "uint256"
        }
      ],
      "name": "adopt",
      "outputs": [],
      "stateMutability": "payable",
      "type": "function"
    },
    {
      "inputs": [
        {
          "internalType": "uint256",
          "name": "",
          "type": "uint256"
        }
      ],
      "name": "apes",
      "outputs": [
        {
          "internalType": "enum ApesNFT.ApesType",
          "name": "aType",
          "type": "uint8"
        },
        {
          "internalType": "bool",
          "name": "bStaked",
          "type": "bool"
        }
      ],
      "stateMutability": "view",
      "type": "function"
    },
    {
      "inputs": [
        {
          "internalType": "address",
          "name": "to",
          "type": "address"
        },
        {
          "internalType": "uint256",
          "name": "tokenId",
          "type": "uint256"
        }
      ],
      "name": "approve",
      "outputs": [],
      "stateMutability": "nonpayable",
      "type": "function"
    },
    {
      "inputs": [],
      "name": "bBreedingAvailable",
      "outputs": [
        {
          "internalType": "bool",
          "name": "",
          "type": "bool"
        }
      ],
      "stateMutability": "view",
      "type": "function"
    },
    {
      "inputs": [],
      "name": "bMintAvailable",
      "outputs": [
        {
          "internalType": "bool",
          "name": "",
          "type": "bool"
        }
      ],
      "stateMutability": "view",
      "type": "function"
    },
    {
      "inputs": [],
      "name": "bStakingAvailable",
      "outputs": [
        {
          "internalType": "bool",
          "name": "",
          "type": "bool"
        }
      ],
      "stateMutability": "view",
      "type": "function"
    },
    {
      "inputs": [
        {
          "internalType": "address",
          "name": "owner",
          "type": "address"
        }
      ],
      "name": "balanceOf",
      "outputs": [
        {
          "internalType": "uint256",
          "name": "",
          "type": "uint256"
        }
      ],
      "stateMutability": "view",
      "type": "function"
    },
    {
      "inputs": [
        {
          "internalType": "uint256",
          "name": "_tokenId",
          "type": "uint256"
        }
      ],
      "name": "evolve",
      "outputs": [],
      "stateMutability": "payable",
      "type": "function"
    },
    {
      "inputs": [],
      "name": "freemint",
      "outputs": [],
      "stateMutability": "nonpayable",
      "type": "function"
    },
    {
      "inputs": [],
      "name": "freenftsupply",
      "outputs": [
        {
          "internalType": "uint256",
          "name": "",
          "type": "uint256"
        }
      ],
      "stateMutability": "view",
      "type": "function"
    },
    {
      "inputs": [
        {
          "internalType": "uint256",
          "name": "_tokenId",
          "type": "uint256"
        }
      ],
      "name": "getApesType",
      "outputs": [
        {
          "internalType": "uint256",
          "name": "",
          "type": "uint256"
        }
      ],
      "stateMutability": "view",
      "type": "function"
    },
    {
      "inputs": [
        {
          "internalType": "uint256",
          "name": "tokenId",
          "type": "uint256"
        }
      ],
      "name": "getApproved",
      "outputs": [
        {
          "internalType": "address",
          "name": "",
          "type": "address"
        }
      ],
      "stateMutability": "view",
      "type": "function"
    },
    {
      "inputs": [],
      "name": "initialize",
      "outputs": [],
      "stateMutability": "nonpayable",
      "type": "function"
    },
    {
      "inputs": [
        {
          "internalType": "address",
          "name": "owner",
          "type": "address"
        },
        {
          "internalType": "address",
          "name": "operator",
          "type": "address"
        }
      ],
      "name": "isApprovedForAll",
      "outputs": [
        {
          "internalType": "bool",
          "name": "",
          "type": "bool"
        }
      ],
      "stateMutability": "view",
      "type": "function"
    },
    {
      "inputs": [
        {
          "internalType": "uint256",
          "name": "numberOfTokens",
          "type": "uint256"
        }
      ],
      "name": "mintNFT",
      "outputs": [],
      "stateMutability": "payable",
      "type": "function"
    },
    {
      "inputs": [],
      "name": "name",
      "outputs": [
        {
          "internalType": "string",
          "name": "",
          "type": "string"
        }
      ],
      "stateMutability": "view",
      "type": "function"
    },
    {
      "inputs": [],
      "name": "owner",
      "outputs": [
        {
          "internalType": "address",
          "name": "",
          "type": "address"
        }
      ],
      "stateMutability": "view",
      "type": "function"
    },
    {
      "inputs": [
        {
          "internalType": "uint256",
          "name": "tokenId",
          "type": "uint256"
        }
      ],
      "name": "ownerOf",
      "outputs": [
        {
          "internalType": "address",
          "name": "",
          "type": "address"
        }
      ],
      "stateMutability": "view",
      "type": "function"
    },
    {
      "inputs": [],
      "name": "renounceOwnership",
      "outputs": [],
      "stateMutability": "nonpayable",
      "type": "function"
    },
    {
      "inputs": [],
      "name": "royaltyPercent",
      "outputs": [
        {
          "internalType": "uint256",
          "name": "",
          "type": "uint256"
        }
      ],
      "stateMutability": "view",
      "type": "function"
    },
    {
      "inputs": [],
      "name": "royaltyReceiver",
      "outputs": [
        {
          "internalType": "address",
          "name": "",
          "type": "address"
        }
      ],
      "stateMutability": "view",
      "type": "function"
    },
    {
      "inputs": [
        {
          "internalType": "address",
          "name": "from",
          "type": "address"
        },
        {
          "internalType": "address",
          "name": "to",
          "type": "address"
        },
        {
          "internalType": "uint256",
          "name": "tokenId",
          "type": "uint256"
        }
      ],
      "name": "safeTransferFrom",
      "outputs": [],
      "stateMutability": "nonpayable",
      "type": "function"
    },
    {
      "inputs": [
        {
          "internalType": "address",
          "name": "from",
          "type": "address"
        },
        {
          "internalType": "address",
          "name": "to",
          "type": "address"
        },
        {
          "internalType": "uint256",
          "name": "tokenId",
          "type": "uint256"
        },
        {
          "internalType": "bytes",
          "name": "_data",
          "type": "bytes"
        }
      ],
      "name": "safeTransferFrom",
      "outputs": [],
      "stateMutability": "nonpayable",
      "type": "function"
    },
    {
      "inputs": [
        {
          "internalType": "address",
          "name": "operator",
          "type": "address"
        },
        {
          "internalType": "bool",
          "name": "approved",
          "type": "bool"
        }
      ],
      "name": "setApprovalForAll",
      "outputs": [],
      "stateMutability": "nonpayable",
      "type": "function"
    },
    {
      "inputs": [
        {
          "internalType": "string",
          "name": "_newURI",
          "type": "string"
        }
      ],
      "name": "setBaseURI",
      "outputs": [],
      "stateMutability": "nonpayable",
      "type": "function"
    },
    {
      "inputs": [],
      "name": "setBreedingAvailable",
      "outputs": [],
      "stateMutability": "nonpayable",
      "type": "function"
    },
    {
      "inputs": [],
      "name": "setMintAvailable",
      "outputs": [],
      "stateMutability": "nonpayable",
      "type": "function"
    },
    {
      "inputs": [
        {
          "internalType": "address",
          "name": "_royaltyReceiver",
          "type": "address"
        },
        {
          "internalType": "uint256",
          "name": "_royaltyPercent",
          "type": "uint256"
        },
        {
          "internalType": "uint256",
          "name": "_DENOMINATOR",
          "type": "uint256"
        }
      ],
      "name": "setRoyaltyConfig",
      "outputs": [],
      "stateMutability": "nonpayable",
      "type": "function"
    },
    {
      "inputs": [],
      "name": "setStakingAvailable",
      "outputs": [],
      "stateMutability": "nonpayable",
      "type": "function"
    },
    {
      "inputs": [
        {
          "internalType": "address",
          "name": "_addr",
          "type": "address"
        }
      ],
      "name": "setStakingPool",
      "outputs": [],
      "stateMutability": "nonpayable",
      "type": "function"
    },
    {
      "inputs": [
        {
          "internalType": "address",
          "name": "_addr",
          "type": "address"
        }
      ],
      "name": "setUtilitytoken",
      "outputs": [],
      "stateMutability": "nonpayable",
      "type": "function"
    },
    {
      "inputs": [
        {
          "internalType": "uint256",
          "name": "_tokenId",
          "type": "uint256"
        }
      ],
      "name": "startStaking",
      "outputs": [],
      "stateMutability": "nonpayable",
      "type": "function"
    },
    {
      "inputs": [
        {
          "internalType": "uint256",
          "name": "_tokenId",
          "type": "uint256"
        }
      ],
      "name": "stopStaking",
      "outputs": [],
      "stateMutability": "nonpayable",
      "type": "function"
    },
    {
      "inputs": [
        {
          "internalType": "bytes4",
          "name": "interfaceId",
          "type": "bytes4"
        }
      ],
      "name": "supportsInterface",
      "outputs": [
        {
          "internalType": "bool",
          "name": "",
          "type": "bool"
        }
      ],
      "stateMutability": "view",
      "type": "function"
    },
    {
      "inputs": [],
      "name": "symbol",
      "outputs": [
        {
          "internalType": "string",
          "name": "",
          "type": "string"
        }
      ],
      "stateMutability": "view",
      "type": "function"
    },
    {
      "inputs": [
        {
          "internalType": "uint256",
          "name": "index",
          "type": "uint256"
        }
      ],
      "name": "tokenByIndex",
      "outputs": [
        {
          "internalType": "uint256",
          "name": "",
          "type": "uint256"
        }
      ],
      "stateMutability": "view",
      "type": "function"
    },
    {
      "inputs": [
        {
          "internalType": "address",
          "name": "owner",
          "type": "address"
        },
        {
          "internalType": "uint256",
          "name": "index",
          "type": "uint256"
        }
      ],
      "name": "tokenOfOwnerByIndex",
      "outputs": [
        {
          "internalType": "uint256",
          "name": "",
          "type": "uint256"
        }
      ],
      "stateMutability": "view",
      "type": "function"
    },
    {
      "inputs": [
        {
          "internalType": "uint256",
          "name": "tokenId",
          "type": "uint256"
        }
      ],
      "name": "tokenURI",
      "outputs": [
        {
          "internalType": "string",
          "name": "",
          "type": "string"
        }
      ],
      "stateMutability": "view",
      "type": "function"
    },
    {
      "inputs": [],
      "name": "totalSupply",
      "outputs": [
        {
          "internalType": "uint256",
          "name": "",
          "type": "uint256"
        }
      ],
      "stateMutability": "view",
      "type": "function"
    },
    {
      "inputs": [
        {
          "internalType": "uint256",
          "name": "",
          "type": "uint256"
        }
      ],
      "name": "totalSupplyByType",
      "outputs": [
        {
          "internalType": "uint256",
          "name": "",
          "type": "uint256"
        }
      ],
      "stateMutability": "view",
      "type": "function"
    },
    {
      "inputs": [
        {
          "internalType": "address",
          "name": "from",
          "type": "address"
        },
        {
          "internalType": "address",
          "name": "to",
          "type": "address"
        },
        {
          "internalType": "uint256",
          "name": "tokenId",
          "type": "uint256"
        }
      ],
      "name": "transferFrom",
      "outputs": [],
      "stateMutability": "nonpayable",
      "type": "function"
    },
    {
      "inputs": [
        {
          "internalType": "address",
          "name": "newOwner",
          "type": "address"
        }
      ],
      "name": "transferOwnership",
      "outputs": [],
      "stateMutability": "nonpayable",
      "type": "function"
    },
    {
      "inputs": [],
      "name": "withdraw",
      "outputs": [],
      "stateMutability": "nonpayable",
      "type": "function"
    }
  ],
  "bytecode": "0x6080604052601460fb5534801561001557600080fd5b50613a6d806100256000396000f3fe6080604052600436106102e45760003560e01c80638129fc1c11610190578063b428b1c7116100dc578063e985e9c511610095578063f2fde38b1161006f578063f2fde38b1461088a578063f302d62f146108aa578063f9cb63ac146108cb578063fa648584146108e057600080fd5b8063e985e9c514610819578063ea334aa614610862578063f119f5671461087757600080fd5b8063b428b1c714610745578063b88d4fde1461078d578063bf424e7e146107ad578063c002d23d146107c9578063c87b56dd146107e4578063cfc86f7b1461080457600080fd5b806395d89b41116101495780639f67756d116101235780639f67756d146106cd5780639fbc8713146106e4578063a22cb46514610705578063a241d8b31461072557600080fd5b806395d89b411461068d5780639cb66830146106a25780639f0a1e3a146106b857600080fd5b80638129fc1c146105fd5780638588b2c5146106125780638595c369146106255780638da5cb5b14610645578063918f867414610663578063926427441461067a57600080fd5b806330c152561161024f5780636352211e1161020857806370a08231116101e257806370a082311461058c578063715018a6146105ac578063756059bd146105c1578063762b1c92146105dd57600080fd5b80636352211e1461053157806364b1060b1461055157806365e649031461056c57600080fd5b806330c15256146104925780633ccfd60b146104a757806342842e0e146104bc5780634c86ea1d146104dc5780634f6ccce7146104f157806355f804b31461051157600080fd5b80631051f8c1116102a15780631051f8c1146103e857806318160ddd146103fd5780631c760bdb1461041257806323b872dd146104325780632f745c59146104525780633028f63a1461047257600080fd5b806301ffc9a7146102e957806306fdde031461031e578063081812fc146103405780630832f3fb14610378578063095ea7b3146103985780630d159947146103ba575b600080fd5b3480156102f557600080fd5b50610309610304366004613307565b6108f6565b60405190151581526020015b60405180910390f35b34801561032a57600080fd5b50610333610921565b604051610315919061337c565b34801561034c57600080fd5b5061036061035b36600461338f565b6109b3565b6040516001600160a01b039091168152602001610315565b34801561038457600080fd5b506101035461030990610100900460ff1681565b3480156103a457600080fd5b506103b86103b33660046133c4565b610a4d565b005b3480156103c657600080fd5b506103da6103d536600461338f565b610b63565b604051908152602001610315565b3480156103f457600080fd5b506103b8610b84565b34801561040957600080fd5b506099546103da565b34801561041e57600080fd5b506103b861042d36600461338f565b610bc2565b34801561043e57600080fd5b506103b861044d3660046133ee565b610ce1565b34801561045e57600080fd5b506103da61046d3660046133c4565b610d12565b34801561047e57600080fd5b506103b861048d36600461342a565b610da8565b34801561049e57600080fd5b506103b8610df5565b3480156104b357600080fd5b506103b8610e31565b3480156104c857600080fd5b506103b86104d73660046133ee565b610ecc565b3480156104e857600080fd5b506103b8610ee7565b3480156104fd57600080fd5b506103da61050c36600461338f565b610f21565b34801561051d57600080fd5b506103b861052c366004613445565b610fb4565b34801561053d57600080fd5b5061036061054c36600461338f565b610feb565b34801561055d57600080fd5b50610103546103099060ff1681565b34801561057857600080fd5b506103b861058736600461342a565b611062565b34801561059857600080fd5b506103da6105a736600461342a565b6110af565b3480156105b857600080fd5b506103b8611136565b3480156105cd57600080fd5b506103da670de0b6b3a764000081565b3480156105e957600080fd5b506103b86105f836600461338f565b61116c565b34801561060957600080fd5b506103b8611314565b6103b861062036600461338f565b611520565b34801561063157600080fd5b506103da61064036600461338f565b6116ee565b34801561065157600080fd5b5060c9546001600160a01b0316610360565b34801561066f57600080fd5b506103da6101025481565b6103b861068836600461338f565b611712565b34801561069957600080fd5b50610333611f1a565b3480156106ae57600080fd5b506103da60fb5481565b3480156106c457600080fd5b506103da601481565b3480156106d957600080fd5b506103da6101015481565b3480156106f057600080fd5b5061010054610360906001600160a01b031681565b34801561071157600080fd5b506103b86107203660046134b7565b611f29565b34801561073157600080fd5b506103b86107403660046134f3565b611f34565b34801561075157600080fd5b5061077f61076036600461338f565b6101046020526000908152604090205460ff8082169161010090041682565b60405161031592919061353c565b34801561079957600080fd5b506103b86107a8366004613583565b611f8a565b3480156107b957600080fd5b506103da67016345785d8a000081565b3480156107d557600080fd5b506103da66d529ae9e86000081565b3480156107f057600080fd5b506103336107ff36600461338f565b611fc2565b34801561081057600080fd5b5061033361209d565b34801561082557600080fd5b5061030961083436600461365f565b6001600160a01b039182166000908152606a6020908152604080832093909416825291909152205460ff1690565b34801561086e57600080fd5b506103da600a81565b6103b861088536600461338f565b61212c565b34801561089657600080fd5b506103b86108a536600461342a565b6122f4565b3480156108b657600080fd5b50610103546103099062010000900460ff1681565b3480156108d757600080fd5b506103b861238c565b3480156108ec57600080fd5b506103da611a0a81565b60006001600160e01b0319821663780e9d6360e01b148061091b575061091b826123de565b92915050565b60606065805461093090613692565b80601f016020809104026020016040519081016040528092919081815260200182805461095c90613692565b80156109a95780601f1061097e576101008083540402835291602001916109a9565b820191906000526020600020905b81548152906001019060200180831161098c57829003601f168201915b5050505050905090565b6000818152606760205260408120546001600160a01b0316610a315760405162461bcd60e51b815260206004820152602c60248201527f4552433732313a20617070726f76656420717565727920666f72206e6f6e657860448201526b34b9ba32b73a103a37b5b2b760a11b60648201526084015b60405180910390fd5b506000908152606960205260409020546001600160a01b031690565b6000610a5882610feb565b9050806001600160a01b0316836001600160a01b03161415610ac65760405162461bcd60e51b815260206004820152602160248201527f4552433732313a20617070726f76616c20746f2063757272656e74206f776e656044820152603960f91b6064820152608401610a28565b336001600160a01b0382161480610ae25750610ae28133610834565b610b545760405162461bcd60e51b815260206004820152603860248201527f4552433732313a20617070726f76652063616c6c6572206973206e6f74206f7760448201527f6e6572206e6f7220617070726f76656420666f7220616c6c00000000000000006064820152608401610a28565b610b5e838361242e565b505050565b60fe8181548110610b7357600080fd5b600091825260209091200154905081565b60c9546001600160a01b03163314610bae5760405162461bcd60e51b8152600401610a28906136cd565b610103805462ff0000191662010000179055565b60008181526101046020526040902054610100900460ff16610c365760405162461bcd60e51b815260206004820152602760248201527f5468697320746f6b656e206861736e27742065766572206265656e207374616b60448201526632b2103cb2ba1760c91b6064820152608401610a28565b6101075460405163060ee2eb60e21b8152336004820152602481018390526001600160a01b039091169063183b8bac90604401600060405180830381600087803b158015610c8357600080fd5b505af1158015610c97573d6000803e3d6000fd5b505061010754604080516020810190915260008152610cc793506001600160a01b0390911691503390849061249c565b600090815261010460205260409020805461ff0019169055565b610ceb33826124cf565b610d075760405162461bcd60e51b8152600401610a2890613702565b610b5e8383836125c6565b6000610d1d836110af565b8210610d7f5760405162461bcd60e51b815260206004820152602b60248201527f455243373231456e756d657261626c653a206f776e657220696e646578206f7560448201526a74206f6620626f756e647360a81b6064820152608401610a28565b506001600160a01b03919091166000908152609760209081526040808320938352929052205490565b60c9546001600160a01b03163314610dd25760405162461bcd60e51b8152600401610a28906136cd565b61010780546001600160a01b0319166001600160a01b0392909216919091179055565b60c9546001600160a01b03163314610e1f5760405162461bcd60e51b8152600401610a28906136cd565b610103805461ff001916610100179055565b60c9546001600160a01b03163314610e5b5760405162461bcd60e51b8152600401610a28906136cd565b4780610e9b5760405162461bcd60e51b815260206004820152600f60248201526e42616c616e6365206973207a65726f60881b6044820152606401610a28565b604051339082156108fc029083906000818181858888f19350505050158015610ec8573d6000803e3d6000fd5b5050565b610b5e83838360405180602001604052806000815250611f8a565b60c9546001600160a01b03163314610f115760405162461bcd60e51b8152600401610a28906136cd565b610103805460ff19166001179055565b6000610f2c60995490565b8210610f8f5760405162461bcd60e51b815260206004820152602c60248201527f455243373231456e756d657261626c653a20676c6f62616c20696e646578206f60448201526b7574206f6620626f756e647360a01b6064820152608401610a28565b60998281548110610fa257610fa2613753565b90600052602060002001549050919050565b60c9546001600160a01b03163314610fde5760405162461bcd60e51b8152600401610a28906136cd565b610b5e6101058383613163565b6000818152606760205260408120546001600160a01b03168061091b5760405162461bcd60e51b815260206004820152602960248201527f4552433732313a206f776e657220717565727920666f72206e6f6e657869737460448201526832b73a103a37b5b2b760b91b6064820152608401610a28565b60c9546001600160a01b0316331461108c5760405162461bcd60e51b8152600401610a28906136cd565b61010680546001600160a01b0319166001600160a01b0392909216919091179055565b60006001600160a01b03821661111a5760405162461bcd60e51b815260206004820152602a60248201527f4552433732313a2062616c616e636520717565727920666f7220746865207a65604482015269726f206164647265737360b01b6064820152608401610a28565b506001600160a01b031660009081526068602052604090205490565b60c9546001600160a01b031633146111605760405162461bcd60e51b8152600401610a28906136cd565b61116a6000612771565b565b61010354610100900460ff166111d05760405162461bcd60e51b8152602060048201526024808201527f5374616b696e67204d656368616e69736d206973206e6f742073746172746564604482015263081e595d60e21b6064820152608401610a28565b336111da82610feb565b6001600160a01b0316146112305760405162461bcd60e51b815260206004820152601a60248201527f5374616b696e673a206f776e6572206e6f74206d6174636865640000000000006044820152606401610a28565b60008181526101046020526040902054610100900460ff16156112655760405162461bcd60e51b8152600401610a2890613769565b610107546040516367c18bfd60e11b8152336004820152602481018390526001600160a01b039091169063cf8317fa90604401600060405180830381600087803b1580156112b257600080fd5b505af11580156112c6573d6000803e3d6000fd5b5050610107546040805160208101909152600081526112f693503392506001600160a01b0390911690849061249c565b600090815261010460205260409020805461ff001916610100179055565b600054610100900460ff1661132f5760005460ff1615611333565b303b155b6113965760405162461bcd60e51b815260206004820152602e60248201527f496e697469616c697a61626c653a20636f6e747261637420697320616c72656160448201526d191e481a5b9a5d1a585b1a5e995960921b6064820152608401610a28565b600054610100900460ff161580156113b8576000805461ffff19166101011790555b6114046040518060400160405280600f81526020016e2232b3b2b7102132b0b91021b63ab160891b8152506040518060400160405280600381526020016244424360e81b8152506127c3565b61140c612804565b604080516060810182526000815261271060208201526142689181019190915261143a9060fc9060036131e7565b506040805160608101825261270f8152611a0a60208201526064918101919091526114699060fd9060036131e7565b5060408051606081018252600080825260208201819052918101919091526114959060fe906003613228565b5061010080546001600160a01b03191673d8378be0d049ece73da320252b6399e9584de949179055600a6101015560646101025561010380546201000162ffffff1990911617905560408051606081019091526037808252613a016020830139805161150a9161010591602090910190613268565b50801561151d576000805461ff00191690555b50565b6101035462010000900460ff166115795760405162461bcd60e51b815260206004820152601c60248201527f41646f7074696e67204d32206973206e6f7420726561647920796574000000006044820152606401610a28565b60016000828152610104602052604090205460ff16600281111561159f5761159f613526565b14156115ed5760405162461bcd60e51b815260206004820152601a60248201527f5472792061646f7074696e672077697468204d31206f72204d330000000000006044820152606401610a28565b67016345785d8a000034101561163e5760405162461bcd60e51b8152602060048201526016602482015275139bc8195b9bdd59da081c185e481d1bc8189c99595960521b6044820152606401610a28565b3361164882610feb565b6001600160a01b0316146116af5760405162461bcd60e51b815260206004820152602860248201527f41646f7074696e673a20596f75277265206e6f74206f776e6572206f6620746860448201526734b9903a37b5b2b760c11b6064820152608401610a28565b60008181526101046020526040902054610100900460ff16156116e45760405162461bcd60e51b8152600401610a2890613769565b61151d600161283b565b6000818152610104602052604081205460ff16600281111561091b5761091b613526565b611a0a60fb541015611a8e576101035460ff166117715760405162461bcd60e51b815260206004820152601c60248201527f4d696e74696e67206973206e6f7420617661696c61626c6520796574000000006044820152606401610a28565b600081118015611782575060148111155b61179e5760405162461bcd60e51b8152600401610a28906137c6565b60fd6000815481106117b2576117b2613753565b60009182526020822001549060fe90815481106117d1576117d1613753565b9060005260206000200154106118295760405162461bcd60e51b815260206004820152601d60248201527f457863656564206d617820737570706c79206f662041706573204e46540000006044820152606401610a28565b60fe60008154811061183d5761183d613753565b60009182526020822001549060fd908154811061185c5761185c613753565b9060005260206000200154611871919061381d565b8111156118c35760fe60008154811061188c5761188c613753565b60009182526020822001549060fd90815481106118ab576118ab613753565b90600052602060002001546118c0919061381d565b90505b610102546101015482916000916118f691906118f0906118ea66d529ae9e860000876129e8565b906129e8565b906129f4565b9050803410156119395760405162461bcd60e51b815260206004820152600e60248201526d125b9d985b1a5908105b5bdd5b9d60921b6044820152606401610a28565b600060fe818154811061194e5761194e613753565b60009182526020822001549150849060fe908154811061197057611970613753565b9060005260206000200160008282546119899190613834565b909155505060fb5461199c908490613834565b60fb5560006119ab833461381d565b604051909150339082156108fc029083906000818181858888f193505050501580156119db573d6000803e3d6000fd5b50610100546040516001600160a01b039091169084156108fc029085906000818181858888f19350505050158015611a17573d6000803e3d6000fd5b5060015b858111611a8657611a3533611a308386613834565b612a00565b600061010481611a458487613834565b81526020810191909152604001600020805460ff19166001836002811115611a6f57611a6f613526565b021790555080611a7e8161384c565b915050611a1b565b505050505050565b6101035460ff16611ae15760405162461bcd60e51b815260206004820152601c60248201527f4d696e74696e67206973206e6f7420617661696c61626c6520796574000000006044820152606401610a28565b600081118015611af2575060148111155b611b0e5760405162461bcd60e51b8152600401610a28906137c6565b60fd600081548110611b2257611b22613753565b60009182526020822001549060fe9081548110611b4157611b41613753565b906000526020600020015410611b995760405162461bcd60e51b815260206004820152601d60248201527f457863656564206d617820737570706c79206f662041706573204e46540000006044820152606401610a28565b60fe600081548110611bad57611bad613753565b60009182526020822001549060fd9081548110611bcc57611bcc613753565b9060005260206000200154611be1919061381d565b811115611c335760fe600081548110611bfc57611bfc613753565b60009182526020822001549060fd9081548110611c1b57611c1b613753565b9060005260206000200154611c30919061381d565b90505b33600090815260ff60205260408120548190611c5090600a61381d565b9050600081118015611c815750611a0a60fe600081548110611c7457611c74613753565b9060005260206000200154105b15611cc05760fe600081548110611c9a57611c9a613753565b9060005260206000200154611a0a611cb2919061381d565b915080821115611cc0578091505b8280831115611cd457508291506000611ce1565b611cde838561381d565b90505b6000611d0b610102546118f0610101546118ea8966d529ae9e8600006129e890919063ffffffff16565b905080611d1f8366d529ae9e860000613867565b611d299190613834565b341015611d695760405162461bcd60e51b815260206004820152600e60248201526d125b9d985b1a5908105b5bdd5b9d60921b6044820152606401610a28565b600060fe8181548110611d7e57611d7e613753565b60009182526020822001549150869060fe9081548110611da057611da0613753565b906000526020600020016000828254611db99190613834565b909155505033600090815260ff602052604081208054879290611ddd908490613834565b9091555060009050611df68466d529ae9e860000613867565b611e00903461381d565b604051909150339082156108fc029083906000818181858888f19350505050158015611e30573d6000803e3d6000fd5b50610100546040516001600160a01b039091169084156108fc029085906000818181858888f19350505050158015611e6c573d6000803e3d6000fd5b5060c9546040516001600160a01b03909116904780156108fc02916000818181858888f19350505050158015611ea6573d6000803e3d6000fd5b5060015b878111611f1057611ebf33611a308386613834565b600061010481611ecf8487613834565b81526020810191909152604001600020805460ff19166001836002811115611ef957611ef9613526565b021790555080611f088161384c565b915050611eaa565b5050505050505050565b60606066805461093090613692565b610ec8338383612a1a565b60c9546001600160a01b03163314611f5e5760405162461bcd60e51b8152600401610a28906136cd565b61010080546001600160a01b0319166001600160a01b0394909416939093179092556101015561010255565b611f9433836124cf565b611fb05760405162461bcd60e51b8152600401610a2890613702565b611fbc8484848461249c565b50505050565b6000818152606760205260409020546060906001600160a01b03166120415760405162461bcd60e51b815260206004820152602f60248201527f4552433732314d657461646174613a2055524920717565727920666f72206e6f60448201526e3732bc34b9ba32b73a103a37b5b2b760891b6064820152608401610a28565b600061204b612ae9565b9050600081511161206b5760405180602001604052806000815250612096565b8061207584612af9565b604051602001612086929190613886565b6040516020818303038152906040525b9392505050565b61010580546120ab90613692565b80601f01602080910402602001604051908101604052809291908181526020018280546120d790613692565b80156121245780601f106120f957610100808354040283529160200191612124565b820191906000526020600020905b81548152906001019060200180831161210757829003601f168201915b505050505081565b6101035462010000900460ff166121855760405162461bcd60e51b815260206004820152601e60248201527f45766f6c76696e672041706573206973206e6f742072656164792079657400006044820152606401610a28565b3361218f82610feb565b6001600160a01b0316146121f45760405162461bcd60e51b815260206004820152602660248201527f45766f6c76653a20596f75277265206e6f74206f776e6572206f662074686973604482015265103a37b5b2b760d11b6064820152608401610a28565b6000818152610104602052604081205460ff16600281111561221857612218613526565b1461225d5760405162461bcd60e51b81526020600482015260156024820152744d312063616e206f6e6c792065766f6c7665204d3360581b6044820152606401610a28565b670de0b6b3a76400003410156122b55760405162461bcd60e51b815260206004820152601760248201527f4e6f20656e6f7567682070617920746f2065766f6c76650000000000000000006044820152606401610a28565b60008181526101046020526040902054610100900460ff16156122ea5760405162461bcd60e51b8152600401610a2890613769565b61151d600261283b565b60c9546001600160a01b0316331461231e5760405162461bcd60e51b8152600401610a28906136cd565b6001600160a01b0381166123835760405162461bcd60e51b815260206004820152602660248201527f4f776e61626c653a206e6577206f776e657220697320746865207a65726f206160448201526564647265737360d01b6064820152608401610a28565b61151d81612771565b60c9546001600160a01b031633146123b65760405162461bcd60e51b8152600401610a28906136cd565b60005b60fa81101561151d576123cc600061283b565b806123d68161384c565b9150506123b9565b60006001600160e01b031982166380ac58cd60e01b148061240f57506001600160e01b03198216635b5e139f60e01b145b8061091b57506301ffc9a760e01b6001600160e01b031983161461091b565b600081815260696020526040902080546001600160a01b0319166001600160a01b038416908117909155819061246382610feb565b6001600160a01b03167f8c5be1e5ebec7d5bd14f71427d1e84f3dd0314c0f7b2291e5b200ac8c7c3b92560405160405180910390a45050565b6124a78484846125c6565b6124b384848484612bf7565b611fbc5760405162461bcd60e51b8152600401610a28906138b5565b6000818152606760205260408120546001600160a01b03166125485760405162461bcd60e51b815260206004820152602c60248201527f4552433732313a206f70657261746f7220717565727920666f72206e6f6e657860448201526b34b9ba32b73a103a37b5b2b760a11b6064820152608401610a28565b600061255383610feb565b9050806001600160a01b0316846001600160a01b0316148061258e5750836001600160a01b0316612583846109b3565b6001600160a01b0316145b806125be57506001600160a01b038082166000908152606a602090815260408083209388168352929052205460ff165b949350505050565b826001600160a01b03166125d982610feb565b6001600160a01b0316146126415760405162461bcd60e51b815260206004820152602960248201527f4552433732313a207472616e73666572206f6620746f6b656e2074686174206960448201526839903737ba1037bbb760b91b6064820152608401610a28565b6001600160a01b0382166126a35760405162461bcd60e51b8152602060048201526024808201527f4552433732313a207472616e7366657220746f20746865207a65726f206164646044820152637265737360e01b6064820152608401610a28565b6126ae838383612cf5565b6126b960008261242e565b6001600160a01b03831660009081526068602052604081208054600192906126e290849061381d565b90915550506001600160a01b0382166000908152606860205260408120805460019290612710908490613834565b909155505060008181526067602052604080822080546001600160a01b0319166001600160a01b0386811691821790925591518493918716917fddf252ad1be2c89b69c2b068fc378daa952ba7f163c4a11628f55a4df523b3ef91a4505050565b60c980546001600160a01b038381166001600160a01b0319831681179093556040519116919082907f8be0079c531659141344cd1fd0a4f28419497f9722a3daafe3b4186f6b6457e090600090a35050565b600054610100900460ff166127ea5760405162461bcd60e51b8152600401610a2890613907565b6127f2612dad565b6127fa612dad565b610ec88282612dd4565b600054610100900460ff1661282b5760405162461bcd60e51b8152600401610a2890613907565b612833612dad565b61116a612e22565b33321461284757600080fd5b60fd81600281111561285b5761285b613526565b8154811061286b5761286b613753565b906000526020600020015460fe82600281111561288a5761288a613526565b8154811061289a5761289a613753565b9060005260206000200154106128ea5760405162461bcd60e51b8152602060048201526015602482015274105b1b081d1bdad95b9cc8185c99481b5a5b9d1959605a1b6044820152606401610a28565b600060fe82600281111561290057612900613526565b8154811061291057612910613753565b90600052602060002001600081546129279061384c565b9182905550905060fc82600281111561294257612942613526565b8154811061295257612952613753565b9060005260206000200154816129689190613834565b90506129743382612a00565b600081815261010460205260409020805483919060ff191660018360028111156129a0576129a0613526565b02179055508160028111156129b7576129b7613526565b604051829033907f44622077ca534f6e34fe8b39723580be328d0e59b81c0eb6886780aeba88467490600090a45050565b60006120968284613867565b60006120968284613968565b610ec8828260405180602001604052806000815250612e52565b816001600160a01b0316836001600160a01b03161415612a7c5760405162461bcd60e51b815260206004820152601960248201527f4552433732313a20617070726f766520746f2063616c6c6572000000000000006044820152606401610a28565b6001600160a01b038381166000818152606a6020908152604080832094871680845294825291829020805460ff191686151590811790915591519182527f17307eab39ab6107e8899845ad3d59bd9653f200f220920489ca2b5937696c31910160405180910390a3505050565b6060610105805461093090613692565b606081612b1d5750506040805180820190915260018152600360fc1b602082015290565b8160005b8115612b475780612b318161384c565b9150612b409050600a83613968565b9150612b21565b60008167ffffffffffffffff811115612b6257612b6261356d565b6040519080825280601f01601f191660200182016040528015612b8c576020820181803683370190505b5090505b84156125be57612ba160018361381d565b9150612bae600a8661397c565b612bb9906030613834565b60f81b818381518110612bce57612bce613753565b60200101906001600160f81b031916908160001a905350612bf0600a86613968565b9450612b90565b60006001600160a01b0384163b15612cea57604051630a85bd0160e11b81526001600160a01b0385169063150b7a0290612c3b903390899088908890600401613990565b6020604051808303816000875af1925050508015612c76575060408051601f3d908101601f19168201909252612c73918101906139cd565b60015b612cd0573d808015612ca4576040519150601f19603f3d011682016040523d82523d6000602084013e612ca9565b606091505b508051612cc85760405162461bcd60e51b8152600401610a28906138b5565b805181602001fd5b6001600160e01b031916630a85bd0160e11b1490506125be565b506001949350505050565b6001600160a01b038316612d5057612d4b81609980546000838152609a60205260408120829055600182018355919091527f72a152ddfb8e864297c917af52ea6c1c68aead0fee1a62673fcc7e0c94979d000155565b612d73565b816001600160a01b0316836001600160a01b031614612d7357612d738382612e85565b6001600160a01b038216612d8a57610b5e81612f22565b826001600160a01b0316826001600160a01b031614610b5e57610b5e8282612fd1565b600054610100900460ff1661116a5760405162461bcd60e51b8152600401610a2890613907565b600054610100900460ff16612dfb5760405162461bcd60e51b8152600401610a2890613907565b8151612e0e906065906020850190613268565b508051610b5e906066906020840190613268565b600054610100900460ff16612e495760405162461bcd60e51b8152600401610a2890613907565b61116a33612771565b612e5c8383613015565b612e696000848484612bf7565b610b5e5760405162461bcd60e51b8152600401610a28906138b5565b60006001612e92846110af565b612e9c919061381d565b600083815260986020526040902054909150808214612eef576001600160a01b03841660009081526097602090815260408083208584528252808320548484528184208190558352609890915290208190555b5060009182526098602090815260408084208490556001600160a01b039094168352609781528383209183525290812055565b609954600090612f349060019061381d565b6000838152609a602052604081205460998054939450909284908110612f5c57612f5c613753565b906000526020600020015490508060998381548110612f7d57612f7d613753565b6000918252602080832090910192909255828152609a90915260408082208490558582528120556099805480612fb557612fb56139ea565b6001900381819060005260206000200160009055905550505050565b6000612fdc836110af565b6001600160a01b039093166000908152609760209081526040808320868452825280832085905593825260989052919091209190915550565b6001600160a01b03821661306b5760405162461bcd60e51b815260206004820181905260248201527f4552433732313a206d696e7420746f20746865207a65726f20616464726573736044820152606401610a28565b6000818152606760205260409020546001600160a01b0316156130d05760405162461bcd60e51b815260206004820152601c60248201527f4552433732313a20746f6b656e20616c7265616479206d696e746564000000006044820152606401610a28565b6130dc60008383612cf5565b6001600160a01b0382166000908152606860205260408120805460019290613105908490613834565b909155505060008181526067602052604080822080546001600160a01b0319166001600160a01b03861690811790915590518392907fddf252ad1be2c89b69c2b068fc378daa952ba7f163c4a11628f55a4df523b3ef908290a45050565b82805461316f90613692565b90600052602060002090601f01602090048101928261319157600085556131d7565b82601f106131aa5782800160ff198235161785556131d7565b828001600101855582156131d7579182015b828111156131d75782358255916020019190600101906131bc565b506131e39291506132dc565b5090565b8280548282559060005260206000209081019282156131d7579160200282015b828111156131d7578251829061ffff16905591602001919060010190613207565b8280548282559060005260206000209081019282156131d7579160200282015b828111156131d7578251829060ff16905591602001919060010190613248565b82805461327490613692565b90600052602060002090601f01602090048101928261329657600085556131d7565b82601f106132af57805160ff19168380011785556131d7565b828001600101855582156131d7579182015b828111156131d75782518255916020019190600101906132c1565b5b808211156131e357600081556001016132dd565b6001600160e01b03198116811461151d57600080fd5b60006020828403121561331957600080fd5b8135612096816132f1565b60005b8381101561333f578181015183820152602001613327565b83811115611fbc5750506000910152565b60008151808452613368816020860160208601613324565b601f01601f19169290920160200192915050565b6020815260006120966020830184613350565b6000602082840312156133a157600080fd5b5035919050565b80356001600160a01b03811681146133bf57600080fd5b919050565b600080604083850312156133d757600080fd5b6133e0836133a8565b946020939093013593505050565b60008060006060848603121561340357600080fd5b61340c846133a8565b925061341a602085016133a8565b9150604084013590509250925092565b60006020828403121561343c57600080fd5b612096826133a8565b6000806020838503121561345857600080fd5b823567ffffffffffffffff8082111561347057600080fd5b818501915085601f83011261348457600080fd5b81358181111561349357600080fd5b8660208285010111156134a557600080fd5b60209290920196919550909350505050565b600080604083850312156134ca57600080fd5b6134d3836133a8565b9150602083013580151581146134e857600080fd5b809150509250929050565b60008060006060848603121561350857600080fd5b613511846133a8565b95602085013595506040909401359392505050565b634e487b7160e01b600052602160045260246000fd5b604081016003841061355e57634e487b7160e01b600052602160045260246000fd5b92815290151560209091015290565b634e487b7160e01b600052604160045260246000fd5b6000806000806080858703121561359957600080fd5b6135a2856133a8565b93506135b0602086016133a8565b925060408501359150606085013567ffffffffffffffff808211156135d457600080fd5b818701915087601f8301126135e857600080fd5b8135818111156135fa576135fa61356d565b604051601f8201601f19908116603f011681019083821181831017156136225761362261356d565b816040528281528a602084870101111561363b57600080fd5b82602086016020830137600060208483010152809550505050505092959194509250565b6000806040838503121561367257600080fd5b61367b836133a8565b9150613689602084016133a8565b90509250929050565b600181811c908216806136a657607f821691505b602082108114156136c757634e487b7160e01b600052602260045260246000fd5b50919050565b6020808252818101527f4f776e61626c653a2063616c6c6572206973206e6f7420746865206f776e6572604082015260600190565b60208082526031908201527f4552433732313a207472616e736665722063616c6c6572206973206e6f74206f6040820152701ddb995c881b9bdc88185c1c1c9bdd9959607a1b606082015260800190565b634e487b7160e01b600052603260045260246000fd5b60208082526037908201527f5468697320546f6b656e20697320616c7265616479207374616b65642e20506c60408201527f656173652074727920616e6f7468657220746f6b656e2e000000000000000000606082015260800190565b60208082526021908201527f43616e206f6e6c79206d696e7420323020746f6b656e7320617420612074696d6040820152606560f81b606082015260800190565b634e487b7160e01b600052601160045260246000fd5b60008282101561382f5761382f613807565b500390565b6000821982111561384757613847613807565b500190565b600060001982141561386057613860613807565b5060010190565b600081600019048311821515161561388157613881613807565b500290565b60008351613898818460208801613324565b8351908301906138ac818360208801613324565b01949350505050565b60208082526032908201527f4552433732313a207472616e7366657220746f206e6f6e20455243373231526560408201527131b2b4bb32b91034b6b83632b6b2b73a32b960711b606082015260800190565b6020808252602b908201527f496e697469616c697a61626c653a20636f6e7472616374206973206e6f74206960408201526a6e697469616c697a696e6760a81b606082015260800190565b634e487b7160e01b600052601260045260246000fd5b60008261397757613977613952565b500490565b60008261398b5761398b613952565b500690565b6001600160a01b03858116825284166020820152604081018390526080606082018190526000906139c390830184613350565b9695505050505050565b6000602082840312156139df57600080fd5b8151612096816132f1565b634e487b7160e01b600052603160045260246000fdfe68747470733a2f2f617065732d6261636b656e642e6865726f6b756170702e636f6d2f74656d702f6d657461646174612f746f6b656e2fa2646970667358221220c0ff6539b604a342061f817da8a84c6db4587372d854439eae4f8f494e1399af64736f6c634300080a0033",
  "linkReferences": {},
  "deployedLinkReferences": {}
}