{
  "_format": "hh-sol-artifact-1",
  "contractName": "WealthyApesERC721",
  "sourceName": "contracts/WealthyApesERC721.sol",
  "abi": [
    {
      "anonymous": false,
      "inputs": [
        {
          "indexed": true,
          "internalType": "address",
          "name": "owner",
          "type": "address"
        },
        {
          "indexed": true,
          "internalType": "address",
          "name": "approved",
          "type": "address"
        },
        {
          "indexed": true,
          "internalType": "uint256",
          "name": "tokenId",
          "type": "uint256"
        }
      ],
      "name": "Approval",
      "type": "event"
    },
    {
      "anonymous": false,
      "inputs": [
        {
          "indexed": true,
          "internalType": "address",
          "name": "owner",
          "type": "address"
        },
        {
          "indexed": true,
          "internalType": "address",
          "name": "operator",
          "type": "address"
        },
        {
          "indexed": false,
          "internalType": "bool",
          "name": "approved",
          "type": "bool"
        }
      ],
      "name": "ApprovalForAll",
      "type": "event"
    },
    {
      "anonymous": false,
      "inputs": [
        {
          "indexed": false,
          "internalType": "string",
          "name": "_licenseText",
          "type": "string"
        }
      ],
      "name": "LicenseisLocked",
      "type": "event"
    },
    {
      "anonymous": false,
      "inputs": [
        {
          "indexed": true,
          "internalType": "address",
          "name": "previousOwner",
          "type": "address"
        },
        {
          "indexed": true,
          "internalType": "address",
          "name": "newOwner",
          "type": "address"
        }
      ],
      "name": "OwnershipTransferred",
      "type": "event"
    },
    {
      "anonymous": false,
      "inputs": [
        {
          "indexed": true,
          "internalType": "address",
          "name": "from",
          "type": "address"
        },
        {
          "indexed": true,
          "internalType": "address",
          "name": "to",
          "type": "address"
        },
        {
          "indexed": true,
          "internalType": "uint256",
          "name": "tokenId",
          "type": "uint256"
        }
      ],
      "name": "Transfer",
      "type": "event"
    },
    {
      "anonymous": false,
      "inputs": [
        {
          "indexed": false,
          "internalType": "address",
          "name": "_by",
          "type": "address"
        },
        {
          "indexed": false,
          "internalType": "uint256",
          "name": "_tokenId",
          "type": "uint256"
        },
        {
          "indexed": false,
          "internalType": "string",
          "name": "_name",
          "type": "string"
        }
      ],
      "name": "WealthyApesNameChange",
      "type": "event"
    },
    {
      "inputs": [],
      "name": "DENOMINATOR",
      "outputs": [
        {
          "internalType": "uint256",
          "name": "",
          "type": "uint256"
        }
      ],
      "stateMutability": "view",
      "type": "function"
    },
    {
      "inputs": [],
      "name": "LICENSE_TEXT",
      "outputs": [
        {
          "internalType": "string",
          "name": "",
          "type": "string"
        }
      ],
      "stateMutability": "view",
      "type": "function"
    },
    {
      "inputs": [],
      "name": "MAX_WEALTHYAPES",
      "outputs": [
        {
          "internalType": "uint256",
          "name": "",
          "type": "uint256"
        }
      ],
      "stateMutability": "view",
      "type": "function"
    },
    {
      "inputs": [],
      "name": "WEALTHYAPES_PROVENANCE",
      "outputs": [
        {
          "internalType": "string",
          "name": "",
          "type": "string"
        }
      ],
      "stateMutability": "view",
      "type": "function"
    },
    {
      "inputs": [
        {
          "internalType": "address",
          "name": "to",
          "type": "address"
        },
        {
          "internalType": "uint256",
          "name": "tokenId",
          "type": "uint256"
        }
      ],
      "name": "approve",
      "outputs": [],
      "stateMutability": "nonpayable",
      "type": "function"
    },
    {
      "inputs": [
        {
          "internalType": "address",
          "name": "owner",
          "type": "address"
        }
      ],
      "name": "balanceOf",
      "outputs": [
        {
          "internalType": "uint256",
          "name": "",
          "type": "uint256"
        }
      ],
      "stateMutability": "view",
      "type": "function"
    },
    {
      "inputs": [],
      "name": "baseURI",
      "outputs": [
        {
          "internalType": "string",
          "name": "",
          "type": "string"
        }
      ],
      "stateMutability": "view",
      "type": "function"
    },
    {
      "inputs": [
        {
          "internalType": "string",
          "name": "_license",
          "type": "string"
        }
      ],
      "name": "changeLicense",
      "outputs": [],
      "stateMutability": "nonpayable",
      "type": "function"
    },
    {
      "inputs": [
        {
          "internalType": "uint256",
          "name": "_newRoyalty",
          "type": "uint256"
        }
      ],
      "name": "changeRoyaltyPercent",
      "outputs": [],
      "stateMutability": "nonpayable",
      "type": "function"
    },
    {
      "inputs": [
        {
          "internalType": "address",
          "name": "_newReceiver",
          "type": "address"
        }
      ],
      "name": "changeRoyaltyReceiver",
      "outputs": [],
      "stateMutability": "nonpayable",
      "type": "function"
    },
    {
      "inputs": [
        {
          "internalType": "uint256",
          "name": "_tokenId",
          "type": "uint256"
        },
        {
          "internalType": "string",
          "name": "_name",
          "type": "string"
        }
      ],
      "name": "changeWealthyApesName",
      "outputs": [],
      "stateMutability": "nonpayable",
      "type": "function"
    },
    {
      "inputs": [],
      "name": "flipSaleState",
      "outputs": [],
      "stateMutability": "nonpayable",
      "type": "function"
    },
    {
      "inputs": [],
      "name": "freeMintAmount",
      "outputs": [
        {
          "internalType": "uint256",
          "name": "",
          "type": "uint256"
        }
      ],
      "stateMutability": "view",
      "type": "function"
    },
    {
      "inputs": [
        {
          "internalType": "uint256",
          "name": "tokenId",
          "type": "uint256"
        }
      ],
      "name": "getApproved",
      "outputs": [
        {
          "internalType": "address",
          "name": "",
          "type": "address"
        }
      ],
      "stateMutability": "view",
      "type": "function"
    },
    {
      "inputs": [
        {
          "internalType": "uint256",
          "name": "_MAX_WEALTHYAPES",
          "type": "uint256"
        },
        {
          "internalType": "uint256",
          "name": "_wealthyApesPrice",
          "type": "uint256"
        },
        {
          "internalType": "uint256",
          "name": "_DENOMINATOR",
          "type": "uint256"
        },
        {
          "internalType": "uint256",
          "name": "_wealthyApesReserve",
          "type": "uint256"
        },
        {
          "internalType": "address",
          "name": "_royaltyReceiver",
          "type": "address"
        },
        {
          "internalType": "uint256",
          "name": "_royaltyPercent",
          "type": "uint256"
        },
        {
          "internalType": "uint256",
          "name": "_freeMintAmount",
          "type": "uint256"
        }
      ],
      "name": "initialize",
      "outputs": [],
      "stateMutability": "nonpayable",
      "type": "function"
    },
    {
      "inputs": [
        {
          "internalType": "address",
          "name": "owner",
          "type": "address"
        },
        {
          "internalType": "address",
          "name": "operator",
          "type": "address"
        }
      ],
      "name": "isApprovedForAll",
      "outputs": [
        {
          "internalType": "bool",
          "name": "",
          "type": "bool"
        }
      ],
      "stateMutability": "view",
      "type": "function"
    },
    {
      "inputs": [],
      "name": "lockLicense",
      "outputs": [],
      "stateMutability": "nonpayable",
      "type": "function"
    },
    {
      "inputs": [],
      "name": "maxFreeMintCnt",
      "outputs": [
        {
          "internalType": "uint256",
          "name": "",
          "type": "uint256"
        }
      ],
      "stateMutability": "view",
      "type": "function"
    },
    {
      "inputs": [],
      "name": "maxWealthyApesPurchase",
      "outputs": [
        {
          "internalType": "uint256",
          "name": "",
          "type": "uint256"
        }
      ],
      "stateMutability": "view",
      "type": "function"
    },
    {
      "inputs": [],
      "name": "mintNFT",
      "outputs": [],
      "stateMutability": "payable",
      "type": "function"
    },
    {
      "inputs": [],
      "name": "name",
      "outputs": [
        {
          "internalType": "string",
          "name": "",
          "type": "string"
        }
      ],
      "stateMutability": "view",
      "type": "function"
    },
    {
      "inputs": [],
      "name": "owner",
      "outputs": [
        {
          "internalType": "address",
          "name": "",
          "type": "address"
        }
      ],
      "stateMutability": "view",
      "type": "function"
    },
    {
      "inputs": [
        {
          "internalType": "uint256",
          "name": "tokenId",
          "type": "uint256"
        }
      ],
      "name": "ownerOf",
      "outputs": [
        {
          "internalType": "address",
          "name": "",
          "type": "address"
        }
      ],
      "stateMutability": "view",
      "type": "function"
    },
    {
      "inputs": [],
      "name": "renounceOwnership",
      "outputs": [],
      "stateMutability": "nonpayable",
      "type": "function"
    },
    {
      "inputs": [
        {
          "internalType": "address",
          "name": "_to",
          "type": "address"
        },
        {
          "internalType": "uint256",
          "name": "_reserveAmount",
          "type": "uint256"
        }
      ],
      "name": "reserveWealthyApes",
      "outputs": [],
      "stateMutability": "nonpayable",
      "type": "function"
    },
    {
      "inputs": [],
      "name": "royaltyPercent",
      "outputs": [
        {
          "internalType": "uint256",
          "name": "",
          "type": "uint256"
        }
      ],
      "stateMutability": "view",
      "type": "function"
    },
    {
      "inputs": [],
      "name": "royaltyReceiver",
      "outputs": [
        {
          "internalType": "address",
          "name": "",
          "type": "address"
        }
      ],
      "stateMutability": "view",
      "type": "function"
    },
    {
      "inputs": [
        {
          "internalType": "address",
          "name": "from",
          "type": "address"
        },
        {
          "internalType": "address",
          "name": "to",
          "type": "address"
        },
        {
          "internalType": "uint256",
          "name": "tokenId",
          "type": "uint256"
        }
      ],
      "name": "safeTransferFrom",
      "outputs": [],
      "stateMutability": "nonpayable",
      "type": "function"
    },
    {
      "inputs": [
        {
          "internalType": "address",
          "name": "from",
          "type": "address"
        },
        {
          "internalType": "address",
          "name": "to",
          "type": "address"
        },
        {
          "internalType": "uint256",
          "name": "tokenId",
          "type": "uint256"
        },
        {
          "internalType": "bytes",
          "name": "_data",
          "type": "bytes"
        }
      ],
      "name": "safeTransferFrom",
      "outputs": [],
      "stateMutability": "nonpayable",
      "type": "function"
    },
    {
      "inputs": [],
      "name": "saleIsActive",
      "outputs": [
        {
          "internalType": "bool",
          "name": "",
          "type": "bool"
        }
      ],
      "stateMutability": "view",
      "type": "function"
    },
    {
      "inputs": [
        {
          "internalType": "address",
          "name": "operator",
          "type": "address"
        },
        {
          "internalType": "bool",
          "name": "approved",
          "type": "bool"
        }
      ],
      "name": "setApprovalForAll",
      "outputs": [],
      "stateMutability": "nonpayable",
      "type": "function"
    },
    {
      "inputs": [
        {
          "internalType": "string",
          "name": "_newBaseURI",
          "type": "string"
        }
      ],
      "name": "setBaseURI",
      "outputs": [],
      "stateMutability": "nonpayable",
      "type": "function"
    },
    {
      "inputs": [
        {
          "internalType": "bytes32",
          "name": "_merkleTreeRoot",
          "type": "bytes32"
        }
      ],
      "name": "setMerkleTree",
      "outputs": [],
      "stateMutability": "nonpayable",
      "type": "function"
    },
    {
      "inputs": [
        {
          "internalType": "string",
          "name": "provenanceHash",
          "type": "string"
        }
      ],
      "name": "setProvenanceHash",
      "outputs": [],
      "stateMutability": "nonpayable",
      "type": "function"
    },
    {
      "inputs": [
        {
          "internalType": "bytes4",
          "name": "interfaceId",
          "type": "bytes4"
        }
      ],
      "name": "supportsInterface",
      "outputs": [
        {
          "internalType": "bool",
          "name": "",
          "type": "bool"
        }
      ],
      "stateMutability": "view",
      "type": "function"
    },
    {
      "inputs": [],
      "name": "symbol",
      "outputs": [
        {
          "internalType": "string",
          "name": "",
          "type": "string"
        }
      ],
      "stateMutability": "view",
      "type": "function"
    },
    {
      "inputs": [
        {
          "internalType": "uint256",
          "name": "index",
          "type": "uint256"
        }
      ],
      "name": "tokenByIndex",
      "outputs": [
        {
          "internalType": "uint256",
          "name": "",
          "type": "uint256"
        }
      ],
      "stateMutability": "view",
      "type": "function"
    },
    {
      "inputs": [
        {
          "internalType": "uint256",
          "name": "_id",
          "type": "uint256"
        }
      ],
      "name": "tokenLicense",
      "outputs": [
        {
          "internalType": "string",
          "name": "",
          "type": "string"
        }
      ],
      "stateMutability": "view",
      "type": "function"
    },
    {
      "inputs": [
        {
          "internalType": "address",
          "name": "owner",
          "type": "address"
        },
        {
          "internalType": "uint256",
          "name": "index",
          "type": "uint256"
        }
      ],
      "name": "tokenOfOwnerByIndex",
      "outputs": [
        {
          "internalType": "uint256",
          "name": "",
          "type": "uint256"
        }
      ],
      "stateMutability": "view",
      "type": "function"
    },
    {
      "inputs": [
        {
          "internalType": "uint256",
          "name": "tokenId",
          "type": "uint256"
        }
      ],
      "name": "tokenURI",
      "outputs": [
        {
          "internalType": "string",
          "name": "",
          "type": "string"
        }
      ],
      "stateMutability": "view",
      "type": "function"
    },
    {
      "inputs": [
        {
          "internalType": "address",
          "name": "_owner",
          "type": "address"
        }
      ],
      "name": "tokensOfOwner",
      "outputs": [
        {
          "internalType": "uint256[]",
          "name": "",
          "type": "uint256[]"
        }
      ],
      "stateMutability": "view",
      "type": "function"
    },
    {
      "inputs": [],
      "name": "totalSupply",
      "outputs": [
        {
          "internalType": "uint256",
          "name": "",
          "type": "uint256"
        }
      ],
      "stateMutability": "view",
      "type": "function"
    },
    {
      "inputs": [
        {
          "internalType": "address",
          "name": "from",
          "type": "address"
        },
        {
          "internalType": "address",
          "name": "to",
          "type": "address"
        },
        {
          "internalType": "uint256",
          "name": "tokenId",
          "type": "uint256"
        }
      ],
      "name": "transferFrom",
      "outputs": [],
      "stateMutability": "nonpayable",
      "type": "function"
    },
    {
      "inputs": [
        {
          "internalType": "address",
          "name": "newOwner",
          "type": "address"
        }
      ],
      "name": "transferOwnership",
      "outputs": [],
      "stateMutability": "nonpayable",
      "type": "function"
    },
    {
      "inputs": [
        {
          "internalType": "uint256",
          "name": "_tokenId",
          "type": "uint256"
        }
      ],
      "name": "viewWealthyApesName",
      "outputs": [
        {
          "internalType": "string",
          "name": "",
          "type": "string"
        }
      ],
      "stateMutability": "view",
      "type": "function"
    },
    {
      "inputs": [
        {
          "internalType": "uint256",
          "name": "",
          "type": "uint256"
        }
      ],
      "name": "wealthyApesNames",
      "outputs": [
        {
          "internalType": "string",
          "name": "",
          "type": "string"
        }
      ],
      "stateMutability": "view",
      "type": "function"
    },
    {
      "inputs": [
        {
          "internalType": "address",
          "name": "_owner",
          "type": "address"
        }
      ],
      "name": "wealthyApesNamesOfOwner",
      "outputs": [
        {
          "internalType": "string[]",
          "name": "",
          "type": "string[]"
        }
      ],
      "stateMutability": "view",
      "type": "function"
    },
    {
      "inputs": [],
      "name": "wealthyApesPrice",
      "outputs": [
        {
          "internalType": "uint256",
          "name": "",
          "type": "uint256"
        }
      ],
      "stateMutability": "view",
      "type": "function"
    },
    {
      "inputs": [],
      "name": "wealthyApesReserve",
      "outputs": [
        {
          "internalType": "uint256",
          "name": "",
          "type": "uint256"
        }
      ],
      "stateMutability": "view",
      "type": "function"
    }
  ],
  "bytecode": "0x608060405234801561001057600080fd5b50613433806100206000396000f3fe6080604052600436106102ae5760003560e01c8063715018a611610175578063a22cb465116100dc578063d9b137b211610095578063f2fde38b1161006f578063f2fde38b1461081c578063f50382371461083c578063fc1c38b414610853578063fdb057c91461087357600080fd5b8063d9b137b214610798578063e985e9c5146107b8578063eb8d24441461080157600080fd5b8063a22cb465146106e3578063b09904b514610703578063b88d4fde14610723578063bf4702fc14610743578063c87b56dd14610758578063d1d6ff231461077857600080fd5b8063938af8561161012e578063938af8561461064157806395d89b41146106615780639bb5be01146106765780639c3e72bd146106965780639f67756d146106ab5780639fbc8713146106c257600080fd5b8063715018a6146105955780638462151c146105aa5780638da5cb5b146105d75780638e554f5d146105f5578063918f86741461060a57806392754a261461062157600080fd5b806334918dfd116102195780634fde1d13116101d25780634fde1d13146104e057806355f804b3146105005780636352211e146105205780636c0360eb146105405780636ee1ade41461055557806370a082311461057557600080fd5b806334918dfd1461044657806338dd89fb1461045b5780633a467e3d14610472578063414f03311461048957806342842e0e146104a05780634f6ccce7146104c057600080fd5b806318160ddd1161026b57806318160ddd1461038c5780631c81710f146103ab57806323b872dd146103d8578063270b1c81146103f85780632e5f7b0e1461040f5780632f745c591461042657600080fd5b806301ffc9a7146102b357806306fdde03146102e8578063081812fc1461030a578063095ea7b314610342578063109695231461036457806314f710fe14610384575b600080fd5b3480156102bf57600080fd5b506102d36102ce366004612dbe565b610893565b60405190151581526020015b60405180910390f35b3480156102f457600080fd5b506102fd6108a4565b6040516102df91906130cc565b34801561031657600080fd5b5061032a610325366004612d8c565b610936565b6040516001600160a01b0390911681526020016102df565b34801561034e57600080fd5b5061036261035d366004612d62565b6109d0565b005b34801561037057600080fd5b5061036261037f366004612df8565b610ae6565b610362610b28565b34801561039857600080fd5b506099545b6040519081526020016102df565b3480156103b757600080fd5b506103cb6103c6366004612c20565b610e01565b6040516102df9190613026565b3480156103e457600080fd5b506103626103f3366004612c6e565b610f80565b34801561040457600080fd5b5061039d6101385481565b34801561041b57600080fd5b5061039d6101305481565b34801561043257600080fd5b5061039d610441366004612d62565b610fb1565b34801561045257600080fd5b50610362611047565b34801561046757600080fd5b5061039d61013c5481565b34801561047e57600080fd5b5061039d61013b5481565b34801561049557600080fd5b5061039d6101315481565b3480156104ac57600080fd5b506103626104bb366004612c6e565b611086565b3480156104cc57600080fd5b5061039d6104db366004612d8c565b6110a1565b3480156104ec57600080fd5b506102fd6104fb366004612d8c565b611134565b34801561050c57600080fd5b5061036261051b366004612df8565b611236565b34801561052c57600080fd5b5061032a61053b366004612d8c565b611274565b34801561054c57600080fd5b506102fd6112eb565b34801561056157600080fd5b50610362610570366004612e2d565b61137a565b34801561058157600080fd5b5061039d610590366004612c20565b61155a565b3480156105a157600080fd5b506103626115e1565b3480156105b657600080fd5b506105ca6105c5366004612c20565b611617565b6040516102df9190613088565b3480156105e357600080fd5b5060c9546001600160a01b031661032a565b34801561060157600080fd5b506102fd6116cc565b34801561061657600080fd5b5061039d6101355481565b34801561062d57600080fd5b5061036261063c366004612c20565b6116da565b34801561064d57600080fd5b5061036261065c366004612d8c565b61176f565b34801561066d57600080fd5b506102fd6117e7565b34801561068257600080fd5b50610362610691366004612e74565b6117f6565b3480156106a257600080fd5b506102fd6119f6565b3480156106b757600080fd5b5061039d6101345481565b3480156106ce57600080fd5b506101335461032a906001600160a01b031681565b3480156106ef57600080fd5b506103626106fe366004612d26565b611a04565b34801561070f57600080fd5b5061036261071e366004612df8565b611a0f565b34801561072f57600080fd5b5061036261073e366004612caa565b611a9a565b34801561074f57600080fd5b50610362611ad2565b34801561076457600080fd5b506102fd610773366004612d8c565b611b46565b34801561078457600080fd5b50610362610793366004612d8c565b611c21565b3480156107a457600080fd5b506102fd6107b3366004612d8c565b611c51565b3480156107c457600080fd5b506102d36107d3366004612c3b565b6001600160a01b039182166000908152606a6020908152604080832093909416825291909152205460ff1690565b34801561080d57600080fd5b50610136546102d39060ff1681565b34801561082857600080fd5b50610362610837366004612c20565b611cc2565b34801561084857600080fd5b5061039d6101325481565b34801561085f57600080fd5b506102fd61086e366004612d8c565b611d5d565b34801561087f57600080fd5b5061036261088e366004612d62565b611d77565b600061089e82611e49565b92915050565b6060606580546108b390613315565b80601f01602080910402602001604051908101604052809291908181526020018280546108df90613315565b801561092c5780601f106109015761010080835404028352916020019161092c565b820191906000526020600020905b81548152906001019060200180831161090f57829003601f168201915b5050505050905090565b6000818152606760205260408120546001600160a01b03166109b45760405162461bcd60e51b815260206004820152602c60248201527f4552433732313a20617070726f76656420717565727920666f72206e6f6e657860448201526b34b9ba32b73a103a37b5b2b760a11b60648201526084015b60405180910390fd5b506000908152606960205260409020546001600160a01b031690565b60006109db82611274565b9050806001600160a01b0316836001600160a01b03161415610a495760405162461bcd60e51b815260206004820152602160248201527f4552433732313a20617070726f76616c20746f2063757272656e74206f776e656044820152603960f91b60648201526084016109ab565b336001600160a01b0382161480610a655750610a6581336107d3565b610ad75760405162461bcd60e51b815260206004820152603860248201527f4552433732313a20617070726f76652063616c6c6572206973206e6f74206f7760448201527f6e6572206e6f7220617070726f76656420666f7220616c6c000000000000000060648201526084016109ab565b610ae18383611e6e565b505050565b60c9546001600160a01b03163314610b105760405162461bcd60e51b81526004016109ab906131b6565b8051610b249061012d906020840190612ad5565b5050565b600260fb541415610b7b5760405162461bcd60e51b815260206004820152601f60248201527f5265656e7472616e637947756172643a207265656e7472616e742063616c6c0060448201526064016109ab565b600260fb556101365460ff16610bd35760405162461bcd60e51b815260206004820152601f60248201527f53616c65206d7573742062652061637469766520746f206d696e74206e66740060448201526064016109ab565b6101315460995410610c275760405162461bcd60e51b815260206004820181905260248201527f457863656564206d617820737570706c79206f66205765616c7468794170657360448201526064016109ab565b600080610c3e6001610c3860995490565b90611edc565b905061013b54811015610c695761013b54610c599082611ee8565b91506003821115610c6957600391505b6000610c9f61013554610c99856001610c829190613287565b6101345461013254610c9391611ef4565b90611ef4565b90611f00565b61013254909150610cb09082611edc565b341015610cf05760405162461bcd60e51b815260206004820152600e60248201526d125b9d985b1a5908185b5bdd5b9d60921b60448201526064016109ab565b6000610d1282610d0c6101325434611ee890919063ffffffff16565b90611ee8565b604051909150339082156108fc029083906000818181858888f19350505050158015610d42573d6000803e3d6000fd5b50610133546040516001600160a01b039091169083156108fc029084906000818181858888f19350505050158015610d7e573d6000803e3d6000fd5b5060c9546040516001600160a01b03909116904780156108fc02916000818181858888f19350505050158015610db8573d6000803e3d6000fd5b5060015b610dc7856001613287565b8111610df557610de333610dde83610c3860995490565b611f0c565b80610ded8161334a565b915050610dbc565b5050600160fb55505050565b60606000610e0e8361155a565b905080610e48576040805160008082526020820190925290610e40565b6060815260200190600190039081610e2b5790505b509392505050565b60008167ffffffffffffffff811115610e6357610e636133d1565b604051908082528060200260200182016040528015610e9657816020015b6060815260200190600190039081610e815790505b50905060005b82811015610e40576101376000610eb38784610fb1565b81526020019081526020016000208054610ecc90613315565b80601f0160208091040260200160405190810160405280929190818152602001828054610ef890613315565b8015610f455780601f10610f1a57610100808354040283529160200191610f45565b820191906000526020600020905b815481529060010190602001808311610f2857829003601f168201915b5050505050828281518110610f5c57610f5c6133bb565b60200260200101819052508080610f729061334a565b915050610e9c565b50919050565b610f8a3382611f26565b610fa65760405162461bcd60e51b81526004016109ab906131eb565b610ae183838361201d565b6000610fbc8361155a565b821061101e5760405162461bcd60e51b815260206004820152602b60248201527f455243373231456e756d657261626c653a206f776e657220696e646578206f7560448201526a74206f6620626f756e647360a81b60648201526084016109ab565b506001600160a01b03919091166000908152609760209081526040808320938352929052205490565b60c9546001600160a01b031633146110715760405162461bcd60e51b81526004016109ab906131b6565b610136805460ff19811660ff90911615179055565b610ae183838360405180602001604052806000815250611a9a565b60006110ac60995490565b821061110f5760405162461bcd60e51b815260206004820152602c60248201527f455243373231456e756d657261626c653a20676c6f62616c20696e646578206f60448201526b7574206f6620626f756e647360a01b60648201526084016109ab565b60998281548110611122576111226133bb565b90600052602060002001549050919050565b606061113f60995490565b82106111975760405162461bcd60e51b815260206004820152602160248201527f43686f6f73652061207765616c746879417065732077697468696e2072616e676044820152606560f81b60648201526084016109ab565b60008281526101376020526040902080546111b190613315565b80601f01602080910402602001604051908101604052809291908181526020018280546111dd90613315565b801561122a5780601f106111ff5761010080835404028352916020019161122a565b820191906000526020600020905b81548152906001019060200180831161120d57829003601f168201915b50505050509050919050565b60c9546001600160a01b031633146112605760405162461bcd60e51b81526004016109ab906131b6565b8051610b2490610139906020840190612ad5565b6000818152606760205260408120546001600160a01b03168061089e5760405162461bcd60e51b815260206004820152602960248201527f4552433732313a206f776e657220717565727920666f72206e6f6e657869737460448201526832b73a103a37b5b2b760b91b60648201526084016109ab565b61013980546112f990613315565b80601f016020809104026020016040519081016040528092919081815260200182805461132590613315565b80156113725780601f1061134757610100808354040283529160200191611372565b820191906000526020600020905b81548152906001019060200180831161135557829003601f168201915b505050505081565b3361138483611274565b6001600160a01b0316146113f15760405162461bcd60e51b815260206004820152602e60248201527f4865792c20796f75722077616c6c657420646f65736e2774206f776e2074686960448201526d73207765616c746879417065732160901b60648201526084016109ab565b6000828152610137602052604090819020905160029161141091612f18565b602060405180830381855afa15801561142d573d6000803e3d6000fd5b5050506040513d601f19601f820116820180604052508101906114509190612da5565b6002826040516114609190612efc565b602060405180830381855afa15801561147d573d6000803e3d6000fd5b5050506040513d601f19601f820116820180604052508101906114a09190612da5565b14156114fa5760405162461bcd60e51b815260206004820152602360248201527f4e6577206e616d652069732073616d65206173207468652063757272656e74206044820152626f6e6560e81b60648201526084016109ab565b600082815261013760209081526040909120825161151a92840190612ad5565b507f8c689790fde12be479bbb2ce3b17e15b3d9e750559d54aa79e0e4da30f87c41e33838360405161154e93929190612ff6565b60405180910390a15050565b60006001600160a01b0382166115c55760405162461bcd60e51b815260206004820152602a60248201527f4552433732313a2062616c616e636520717565727920666f7220746865207a65604482015269726f206164647265737360b01b60648201526084016109ab565b506001600160a01b031660009081526068602052604090205490565b60c9546001600160a01b0316331461160b5760405162461bcd60e51b81526004016109ab906131b6565b61161560006121c8565b565b606060006116248361155a565b905080611641576040805160008082526020820190925290610e40565b60008167ffffffffffffffff81111561165c5761165c6133d1565b604051908082528060200260200182016040528015611685578160200160208202803683370190505b50905060005b82811015610e405761169d8582610fb1565b8282815181106116af576116af6133bb565b6020908102919091010152806116c48161334a565b91505061168b565b61012d80546112f990613315565b60c9546001600160a01b031633146117045760405162461bcd60e51b81526004016109ab906131b6565b6001600160a01b03811661174c5760405162461bcd60e51b815260206004820152600f60248201526e496e76616c6964206164647265737360881b60448201526064016109ab565b61013380546001600160a01b0319166001600160a01b0392909216919091179055565b60c9546001600160a01b031633146117995760405162461bcd60e51b81526004016109ab906131b6565b606481101580156117ab575061271081105b6117e15760405162461bcd60e51b8152602060048201526007602482015266125b9d985b1a5960ca1b60448201526064016109ab565b61013455565b6060606680546108b390613315565b600054610100900460ff166118115760005460ff1615611815565b303b155b6118785760405162461bcd60e51b815260206004820152602e60248201527f496e697469616c697a61626c653a20636f6e747261637420697320616c72656160448201526d191e481a5b9a5d1a585b1a5e995960921b60648201526084016109ab565b600054610100900460ff1615801561189a576000805461ffff19166101011790555b606483101580156118ac575061271083105b6118e25760405162461bcd60e51b8152602060048201526007602482015266125b9d985b1a5960ca1b60448201526064016109ab565b61192f604051806040016040528060118152602001702bb2b0b63a343c9020b832b99021b63ab160791b81525060405180604001604052806002815260200161574160f01b81525061221a565b61193761225b565b61193f612292565b60408051602081019182905260009081905261195e9161012d91612ad5565b5060408051602081019182905260009081905261197e9161012e91612ad5565b5061012f805460ff199081169091556101368054909116600117905561013188905561013287905561013586905561013885905561013b82905561013380546001600160a01b0319166001600160a01b03861617905561013483905580156119ec576000805461ff00191690555b5050505050505050565b61012e80546112f990613315565b610b243383836122c1565b60c9546001600160a01b03163314611a395760405162461bcd60e51b81526004016109ab906131b6565b61012f5460ff1615611a865760405162461bcd60e51b8152602060048201526016602482015275131a58d95b9cd948185b1c9958591e481b1bd8dad95960521b60448201526064016109ab565b8051610b249061012e906020840190612ad5565b611aa43383611f26565b611ac05760405162461bcd60e51b81526004016109ab906131eb565b611acc84848484612390565b50505050565b60c9546001600160a01b03163314611afc5760405162461bcd60e51b81526004016109ab906131b6565b61012f805460ff191660011790556040517f62f90a81345309c0a5b98ec6aadd492d74210ffb25155d28619e8de313c80c5c90611b3c9061012e906130df565b60405180910390a1565b6000818152606760205260409020546060906001600160a01b0316611bc55760405162461bcd60e51b815260206004820152602f60248201527f4552433732314d657461646174613a2055524920717565727920666f72206e6f60448201526e3732bc34b9ba32b73a103a37b5b2b760891b60648201526084016109ab565b6000611bcf6123c3565b90506000815111611bef5760405180602001604052806000815250611c1a565b80611bf9846123d3565b604051602001611c0a929190612f8a565b6040516020818303038152906040525b9392505050565b60c9546001600160a01b03163314611c4b5760405162461bcd60e51b81526004016109ab906131b6565b61013a55565b6060611c5c60995490565b8210611cb45760405162461bcd60e51b815260206004820152602160248201527f43484f4f53452041205745414c544859415045532057495448494e2052414e476044820152604560f81b60648201526084016109ab565b61012e80546111b190613315565b60c9546001600160a01b03163314611cec5760405162461bcd60e51b81526004016109ab906131b6565b6001600160a01b038116611d515760405162461bcd60e51b815260206004820152602660248201527f4f776e61626c653a206e6577206f776e657220697320746865207a65726f206160448201526564647265737360d01b60648201526084016109ab565b611d5a816121c8565b50565b61013760205260009081526040902080546112f990613315565b60c9546001600160a01b03163314611da15760405162461bcd60e51b81526004016109ab906131b6565b600081118015611db45750610138548111155b611e005760405162461bcd60e51b815260206004820181905260248201527f4e6f7420656e6f7567682072657365727665206c65667420666f72207465616d60448201526064016109ab565b61013854611e0e9082611ee8565b610138556000611e1d60995490565b905060015b828111611acc57611e3784610dde8385613287565b80611e418161334a565b915050611e22565b60006001600160e01b0319821663780e9d6360e01b148061089e575061089e826124d1565b600081815260696020526040902080546001600160a01b0319166001600160a01b0384169081179091558190611ea382611274565b6001600160a01b03167f8c5be1e5ebec7d5bd14f71427d1e84f3dd0314c0f7b2291e5b200ac8c7c3b92560405160405180910390a45050565b6000611c1a8284613287565b6000611c1a82846132d2565b6000611c1a82846132b3565b6000611c1a828461329f565b610b24828260405180602001604052806000815250612521565b6000818152606760205260408120546001600160a01b0316611f9f5760405162461bcd60e51b815260206004820152602c60248201527f4552433732313a206f70657261746f7220717565727920666f72206e6f6e657860448201526b34b9ba32b73a103a37b5b2b760a11b60648201526084016109ab565b6000611faa83611274565b9050806001600160a01b0316846001600160a01b03161480611fe55750836001600160a01b0316611fda84610936565b6001600160a01b0316145b8061201557506001600160a01b038082166000908152606a602090815260408083209388168352929052205460ff165b949350505050565b826001600160a01b031661203082611274565b6001600160a01b0316146120985760405162461bcd60e51b815260206004820152602960248201527f4552433732313a207472616e73666572206f6620746f6b656e2074686174206960448201526839903737ba1037bbb760b91b60648201526084016109ab565b6001600160a01b0382166120fa5760405162461bcd60e51b8152602060048201526024808201527f4552433732313a207472616e7366657220746f20746865207a65726f206164646044820152637265737360e01b60648201526084016109ab565b612105838383612554565b612110600082611e6e565b6001600160a01b03831660009081526068602052604081208054600192906121399084906132d2565b90915550506001600160a01b0382166000908152606860205260408120805460019290612167908490613287565b909155505060008181526067602052604080822080546001600160a01b0319166001600160a01b0386811691821790925591518493918716917fddf252ad1be2c89b69c2b068fc378daa952ba7f163c4a11628f55a4df523b3ef91a4505050565b60c980546001600160a01b038381166001600160a01b0319831681179093556040519116919082907f8be0079c531659141344cd1fd0a4f28419497f9722a3daafe3b4186f6b6457e090600090a35050565b600054610100900460ff166122415760405162461bcd60e51b81526004016109ab9061323c565b61224961255f565b61225161255f565b610b248282612586565b600054610100900460ff166122825760405162461bcd60e51b81526004016109ab9061323c565b61228a61255f565b6116156125d4565b600054610100900460ff166122b95760405162461bcd60e51b81526004016109ab9061323c565b611615612604565b816001600160a01b0316836001600160a01b031614156123235760405162461bcd60e51b815260206004820152601960248201527f4552433732313a20617070726f766520746f2063616c6c65720000000000000060448201526064016109ab565b6001600160a01b038381166000818152606a6020908152604080832094871680845294825291829020805460ff191686151590811790915591519182527f17307eab39ab6107e8899845ad3d59bd9653f200f220920489ca2b5937696c31910160405180910390a3505050565b61239b84848461201d565b6123a784848484612632565b611acc5760405162461bcd60e51b81526004016109ab90613164565b606061013980546108b390613315565b6060816123f75750506040805180820190915260018152600360fc1b602082015290565b8160005b8115612421578061240b8161334a565b915061241a9050600a8361329f565b91506123fb565b60008167ffffffffffffffff81111561243c5761243c6133d1565b6040519080825280601f01601f191660200182016040528015612466576020820181803683370190505b5090505b84156120155761247b6001836132d2565b9150612488600a86613365565b612493906030613287565b60f81b8183815181106124a8576124a86133bb565b60200101906001600160f81b031916908160001a9053506124ca600a8661329f565b945061246a565b60006001600160e01b031982166380ac58cd60e01b148061250257506001600160e01b03198216635b5e139f60e01b145b8061089e57506301ffc9a760e01b6001600160e01b031983161461089e565b61252b838361273f565b6125386000848484612632565b610ae15760405162461bcd60e51b81526004016109ab90613164565b610ae183838361288d565b600054610100900460ff166116155760405162461bcd60e51b81526004016109ab9061323c565b600054610100900460ff166125ad5760405162461bcd60e51b81526004016109ab9061323c565b81516125c0906065906020850190612ad5565b508051610ae1906066906020840190612ad5565b600054610100900460ff166125fb5760405162461bcd60e51b81526004016109ab9061323c565b611615336121c8565b600054610100900460ff1661262b5760405162461bcd60e51b81526004016109ab9061323c565b600160fb55565b60006001600160a01b0384163b1561273457604051630a85bd0160e11b81526001600160a01b0385169063150b7a0290612676903390899088908890600401612fb9565b602060405180830381600087803b15801561269057600080fd5b505af19250505080156126c0575060408051601f3d908101601f191682019092526126bd91810190612ddb565b60015b61271a573d8080156126ee576040519150601f19603f3d011682016040523d82523d6000602084013e6126f3565b606091505b5080516127125760405162461bcd60e51b81526004016109ab90613164565b805181602001fd5b6001600160e01b031916630a85bd0160e11b149050612015565b506001949350505050565b6001600160a01b0382166127955760405162461bcd60e51b815260206004820181905260248201527f4552433732313a206d696e7420746f20746865207a65726f206164647265737360448201526064016109ab565b6000818152606760205260409020546001600160a01b0316156127fa5760405162461bcd60e51b815260206004820152601c60248201527f4552433732313a20746f6b656e20616c7265616479206d696e7465640000000060448201526064016109ab565b61280660008383612554565b6001600160a01b038216600090815260686020526040812080546001929061282f908490613287565b909155505060008181526067602052604080822080546001600160a01b0319166001600160a01b03861690811790915590518392907fddf252ad1be2c89b69c2b068fc378daa952ba7f163c4a11628f55a4df523b3ef908290a45050565b6001600160a01b0383166128e8576128e381609980546000838152609a60205260408120829055600182018355919091527f72a152ddfb8e864297c917af52ea6c1c68aead0fee1a62673fcc7e0c94979d000155565b61290b565b816001600160a01b0316836001600160a01b03161461290b5761290b8382612945565b6001600160a01b03821661292257610ae1816129e2565b826001600160a01b0316826001600160a01b031614610ae157610ae18282612a91565b600060016129528461155a565b61295c91906132d2565b6000838152609860205260409020549091508082146129af576001600160a01b03841660009081526097602090815260408083208584528252808320548484528184208190558352609890915290208190555b5060009182526098602090815260408084208490556001600160a01b039094168352609781528383209183525290812055565b6099546000906129f4906001906132d2565b6000838152609a602052604081205460998054939450909284908110612a1c57612a1c6133bb565b906000526020600020015490508060998381548110612a3d57612a3d6133bb565b6000918252602080832090910192909255828152609a90915260408082208490558582528120556099805480612a7557612a756133a5565b6001900381819060005260206000200160009055905550505050565b6000612a9c8361155a565b6001600160a01b039093166000908152609760209081526040808320868452825280832085905593825260989052919091209190915550565b828054612ae190613315565b90600052602060002090601f016020900481019282612b035760008555612b49565b82601f10612b1c57805160ff1916838001178555612b49565b82800160010185558215612b49579182015b82811115612b49578251825591602001919060010190612b2e565b50612b55929150612b59565b5090565b5b80821115612b555760008155600101612b5a565b600067ffffffffffffffff80841115612b8957612b896133d1565b604051601f8501601f19908116603f01168101908282118183101715612bb157612bb16133d1565b81604052809350858152868686011115612bca57600080fd5b858560208301376000602087830101525050509392505050565b80356001600160a01b0381168114612bfb57600080fd5b919050565b600082601f830112612c1157600080fd5b611c1a83833560208501612b6e565b600060208284031215612c3257600080fd5b611c1a82612be4565b60008060408385031215612c4e57600080fd5b612c5783612be4565b9150612c6560208401612be4565b90509250929050565b600080600060608486031215612c8357600080fd5b612c8c84612be4565b9250612c9a60208501612be4565b9150604084013590509250925092565b60008060008060808587031215612cc057600080fd5b612cc985612be4565b9350612cd760208601612be4565b925060408501359150606085013567ffffffffffffffff811115612cfa57600080fd5b8501601f81018713612d0b57600080fd5b612d1a87823560208401612b6e565b91505092959194509250565b60008060408385031215612d3957600080fd5b612d4283612be4565b915060208301358015158114612d5757600080fd5b809150509250929050565b60008060408385031215612d7557600080fd5b612d7e83612be4565b946020939093013593505050565b600060208284031215612d9e57600080fd5b5035919050565b600060208284031215612db757600080fd5b5051919050565b600060208284031215612dd057600080fd5b8135611c1a816133e7565b600060208284031215612ded57600080fd5b8151611c1a816133e7565b600060208284031215612e0a57600080fd5b813567ffffffffffffffff811115612e2157600080fd5b61201584828501612c00565b60008060408385031215612e4057600080fd5b82359150602083013567ffffffffffffffff811115612e5e57600080fd5b612e6a85828601612c00565b9150509250929050565b600080600080600080600060e0888a031215612e8f57600080fd5b87359650602088013595506040880135945060608801359350612eb460808901612be4565b925060a0880135915060c0880135905092959891949750929550565b60008151808452612ee88160208601602086016132e9565b601f01601f19169290920160200192915050565b60008251612f0e8184602087016132e9565b9190910192915050565b6000808354612f2681613315565b60018281168015612f3e5760018114612f4f57612f7e565b60ff19841687528287019450612f7e565b8760005260208060002060005b85811015612f755781548a820152908401908201612f5c565b50505082870194505b50929695505050505050565b60008351612f9c8184602088016132e9565b835190830190612fb08183602088016132e9565b01949350505050565b6001600160a01b0385811682528416602082015260408101839052608060608201819052600090612fec90830184612ed0565b9695505050505050565b60018060a01b038416815282602082015260606040820152600061301d6060830184612ed0565b95945050505050565b6000602080830181845280855180835260408601915060408160051b870101925083870160005b8281101561307b57603f19888603018452613069858351612ed0565b9450928501929085019060010161304d565b5092979650505050505050565b6020808252825182820181905260009190848201906040850190845b818110156130c0578351835292840192918401916001016130a4565b50909695505050505050565b602081526000611c1a6020830184612ed0565b60006020808352600084546130f381613315565b80848701526040600180841660008114613114576001811461312857613156565b60ff19851689840152606089019550613156565b896000528660002060005b8581101561314e5781548b8201860152908301908801613133565b8a0184019650505b509398975050505050505050565b60208082526032908201527f4552433732313a207472616e7366657220746f206e6f6e20455243373231526560408201527131b2b4bb32b91034b6b83632b6b2b73a32b960711b606082015260800190565b6020808252818101527f4f776e61626c653a2063616c6c6572206973206e6f7420746865206f776e6572604082015260600190565b60208082526031908201527f4552433732313a207472616e736665722063616c6c6572206973206e6f74206f6040820152701ddb995c881b9bdc88185c1c1c9bdd9959607a1b606082015260800190565b6020808252602b908201527f496e697469616c697a61626c653a20636f6e7472616374206973206e6f74206960408201526a6e697469616c697a696e6760a81b606082015260800190565b6000821982111561329a5761329a613379565b500190565b6000826132ae576132ae61338f565b500490565b60008160001904831182151516156132cd576132cd613379565b500290565b6000828210156132e4576132e4613379565b500390565b60005b838110156133045781810151838201526020016132ec565b83811115611acc5750506000910152565b600181811c9082168061332957607f821691505b60208210811415610f7a57634e487b7160e01b600052602260045260246000fd5b600060001982141561335e5761335e613379565b5060010190565b6000826133745761337461338f565b500690565b634e487b7160e01b600052601160045260246000fd5b634e487b7160e01b600052601260045260246000fd5b634e487b7160e01b600052603160045260246000fd5b634e487b7160e01b600052603260045260246000fd5b634e487b7160e01b600052604160045260246000fd5b6001600160e01b031981168114611d5a57600080fdfea26469706673582212200c2ee48b1cfa80858057c00ad3ed69eef01b7bc134a7f5e28d91c1d3e7de405464736f6c63430008060033",
  "linkReferences": {},
  "deployedLinkReferences": {}
}