{
  "_format": "hh-sol-artifact-1",
  "contractName": "ERC721Factory",
  "sourceName": "contracts/ERC721Factory.sol",
  "abi": [
    {
      "inputs": [],
      "stateMutability": "nonpayable",
      "type": "constructor"
    },
    {
      "inputs": [
        {
          "internalType": "address",
          "name": "",
          "type": "address"
        }
      ],
      "name": "contractAddresses",
      "outputs": [
        {
          "internalType": "address",
          "name": "",
          "type": "address"
        }
      ],
      "stateMutability": "view",
      "type": "function"
    },
    {
      "inputs": [],
      "name": "contractCount",
      "outputs": [
        {
          "internalType": "uint256",
          "name": "",
          "type": "uint256"
        }
      ],
      "stateMutability": "view",
      "type": "function"
    },
    {
      "inputs": [
        {
          "internalType": "string",
          "name": "_name",
          "type": "string"
        },
        {
          "internalType": "string",
          "name": "_symbol",
          "type": "string"
        },
        {
          "internalType": "uint256",
          "name": "_maxMintdropzPurchase",
          "type": "uint256"
        },
        {
          "internalType": "uint256",
          "name": "_MAX_MINTDROPZ",
          "type": "uint256"
        },
        {
          "internalType": "uint256",
          "name": "_mintdropzPrice",
          "type": "uint256"
        },
        {
          "internalType": "uint256",
          "name": "_DENOMINATOR",
          "type": "uint256"
        },
        {
          "internalType": "uint256",
          "name": "_mintdropzReserve",
          "type": "uint256"
        },
        {
          "internalType": "address",
          "name": "_royaltyReceiver",
          "type": "address"
        },
        {
          "internalType": "uint256",
          "name": "_royaltyPercent",
          "type": "uint256"
        }
      ],
      "name": "createContract",
      "outputs": [],
      "stateMutability": "nonpayable",
      "type": "function"
    },
    {
      "inputs": [],
      "name": "getContractCount",
      "outputs": [
        {
          "internalType": "uint256",
          "name": "",
          "type": "uint256"
        }
      ],
      "stateMutability": "view",
      "type": "function"
    },
    {
      "inputs": [],
      "name": "getMyContract",
      "outputs": [
        {
          "internalType": "address",
          "name": "",
          "type": "address"
        }
      ],
      "stateMutability": "view",
      "type": "function"
    }
  ],
  "bytecode": "0x608060405234801561001057600080fd5b50600280546001600160a01b03191633179055613ca3806100326000396000f3fe608060405234801561001057600080fd5b50600436106100575760003560e01c80633e9b917a1461005c5780634661ac95146100715780635c41a1c4146100b75780638736381a146100bf5780639399869d146100d6575b600080fd5b61006f61006a36600461032c565b6100de565b005b61009a61007f3660046103db565b6000602081905290815260409020546001600160a01b031681565b6040516001600160a01b0390911681526020015b60405180910390f35b61009a610221565b6100c860015481565b6040519081526020016100ae565b6001546100c8565b60006040516100ec90610260565b604051809103906000f080158015610108573d6000803e3d6000fd5b5060025460405163e94f77df60e01b81529192506001600160a01b038084169263e94f77df9261014e928f928f928f928f928f928f928f928f928f92169060040161044a565b600060405180830381600087803b15801561016857600080fd5b505af115801561017c573d6000803e3d6000fd5b505060405163f2fde38b60e01b81523360048201526001600160a01b038416925063f2fde38b9150602401600060405180830381600087803b1580156101c157600080fd5b505af11580156101d5573d6000803e3d6000fd5b505033600090815260208190526040812080546001600160a01b0319166001600160a01b0386161790556001805493509150610210836104c3565b919050555050505050505050505050565b336000908152602081905260408120546001600160a01b031661024357600080fd5b50336000908152602081905260409020546001600160a01b031690565b613781806104ed83390190565b634e487b7160e01b600052604160045260246000fd5b600082601f83011261029457600080fd5b813567ffffffffffffffff808211156102af576102af61026d565b604051601f8301601f19908116603f011681019082821181831017156102d7576102d761026d565b816040528381528660208588010111156102f057600080fd5b836020870160208301376000602085830101528094505050505092915050565b80356001600160a01b038116811461032757600080fd5b919050565b60008060008060008060008060006101208a8c03121561034b57600080fd5b893567ffffffffffffffff8082111561036357600080fd5b61036f8d838e01610283565b9a5060208c013591508082111561038557600080fd5b506103928c828d01610283565b98505060408a0135965060608a0135955060808a0135945060a08a0135935060c08a013592506103c460e08b01610310565b91506101008a013590509295985092959850929598565b6000602082840312156103ed57600080fd5b6103f682610310565b9392505050565b6000815180845260005b8181101561042357602081850181015186830182015201610407565b81811115610435576000602083870101525b50601f01601f19169290920160200192915050565b600061014080835261045e8184018e6103fd565b90508281036020840152610472818d6103fd565b604084019b909b5250506060810197909752608087019590955260a086019390935260c08501919091526001600160a01b0390811660e0850152610100840191909152166101209091015292915050565b60006000198214156104e557634e487b7160e01b600052601160045260246000fd5b506001019056fe608060405234801561001057600080fd5b50613761806100206000396000f3fe6080604052600436106102e45760003560e01c80638da5cb5b11610190578063b09904b5116100dc578063e94f77df11610095578063efbd3a8b1161006f578063efbd3a8b146108b0578063f153bbc0146108d0578063f2fde38b146108e7578063f8e773691461090757600080fd5b8063e94f77df1461082c578063e985e9c51461084c578063eb8d24441461089557600080fd5b8063b09904b514610777578063b88d4fde14610797578063bf4702fc146107b7578063c87b56dd146107cc578063d1d6ff23146107ec578063d9b137b21461080c57600080fd5b806395d89b41116101495780639f67756d116101235780639f67756d146106ff5780639fbc871314610716578063a22cb46514610737578063aee1642c1461075757600080fd5b806395d89b41146106be57806398b1fa2d146106d35780639c3e72bd146106ea57600080fd5b80638da5cb5b1461061f578063918f86741461063d578063926427441461065457806392754a261461066757806392bd6cb914610687578063938af8561461069e57600080fd5b806342842e0e1161024f5780636352211e11610208578063715018a6116101e2578063715018a61461059c578063751c8b1a146105b15780638462151c146105d2578063885bd358146105ff57600080fd5b80636352211e146105475780636c0360eb1461056757806370a082311461057c57600080fd5b806342842e0e1461049b57806346df8582146104bb5780634f6660c6146104db5780634f6ccce7146104f057806355f804b314610510578063609cd0f41461053057600080fd5b806318160ddd116102a157806318160ddd146103e75780631e971bdb1461040657806323b872dd146104265780632bc9d930146104465780632f745c591461046657806334918dfd1461048657600080fd5b806301ffc9a7146102e957806306fdde031461031e578063081812fc14610340578063095ea7b314610378578063109695231461039a57806314b69130146103ba575b600080fd5b3480156102f557600080fd5b50610309610304366004612dd8565b610927565b60405190151581526020015b60405180910390f35b34801561032a57600080fd5b50610333610938565b6040516103159190612e4d565b34801561034c57600080fd5b5061036061035b366004612e60565b6109ca565b6040516001600160a01b039091168152602001610315565b34801561038457600080fd5b50610398610393366004612e95565b610a64565b005b3480156103a657600080fd5b506103986103b5366004612f6b565b610b7a565b3480156103c657600080fd5b506103da6103d5366004612fa0565b610bbc565b6040516103159190612fbb565b3480156103f357600080fd5b506099545b604051908152602001610315565b34801561041257600080fd5b50610333610421366004612e60565b610d3b565b34801561043257600080fd5b5061039861044136600461301d565b610dd6565b34801561045257600080fd5b50610398610461366004612e95565b610e07565b34801561047257600080fd5b506103f8610481366004612e95565b610ee4565b34801561049257600080fd5b50610398610f7a565b3480156104a757600080fd5b506103986104b636600461301d565b610fb9565b3480156104c757600080fd5b506103986104d6366004612fa0565b610fd4565b3480156104e757600080fd5b50610333611020565b3480156104fc57600080fd5b506103f861050b366004612e60565b61102e565b34801561051c57600080fd5b5061039861052b366004612f6b565b6110c1565b34801561053c57600080fd5b506103f861013a5481565b34801561055357600080fd5b50610360610562366004612e60565b6110ff565b34801561057357600080fd5b50610333611176565b34801561058857600080fd5b506103f8610597366004612fa0565b611184565b3480156105a857600080fd5b5061039861120b565b3480156105bd57600080fd5b5061013454610360906001600160a01b031681565b3480156105de57600080fd5b506105f26105ed366004612fa0565b611241565b6040516103159190613059565b34801561060b57600080fd5b5061033361061a366004612e60565b6112f6565b34801561062b57600080fd5b5060c9546001600160a01b0316610360565b34801561064957600080fd5b506103f86101365481565b610398610662366004612e60565b6113ee565b34801561067357600080fd5b50610398610682366004612fa0565b611799565b34801561069357600080fd5b506103f86101305481565b3480156106aa57600080fd5b506103986106b9366004612e60565b61182e565b3480156106ca57600080fd5b506103336118a6565b3480156106df57600080fd5b506103f86101325481565b3480156106f657600080fd5b506103336118b5565b34801561070b57600080fd5b506103f86101355481565b34801561072257600080fd5b5061013354610360906001600160a01b031681565b34801561074357600080fd5b5061039861075236600461309d565b6118c3565b34801561076357600080fd5b50610398610772366004612fa0565b6118ce565b34801561078357600080fd5b50610398610792366004612f6b565b61191d565b3480156107a357600080fd5b506103986107b23660046130d9565b6119a8565b3480156107c357600080fd5b506103986119da565b3480156107d857600080fd5b506103336107e7366004612e60565b611a4e565b3480156107f857600080fd5b50610398610807366004612e60565b611b29565b34801561081857600080fd5b50610333610827366004612e60565b611b59565b34801561083857600080fd5b50610398610847366004613155565b611bc0565b34801561085857600080fd5b50610309610867366004613216565b6001600160a01b039182166000908152606a6020908152604080832093909416825291909152205460ff1690565b3480156108a157600080fd5b50610138546103099060ff1681565b3480156108bc57600080fd5b506103986108cb366004613249565b611d96565b3480156108dc57600080fd5b506103f86101315481565b3480156108f357600080fd5b50610398610902366004612fa0565b611f74565b34801561091357600080fd5b50610398610922366004613290565b61200f565b6000610932826120ac565b92915050565b60606065805461094790613305565b80601f016020809104026020016040519081016040528092919081815260200182805461097390613305565b80156109c05780601f10610995576101008083540402835291602001916109c0565b820191906000526020600020905b8154815290600101906020018083116109a357829003601f168201915b5050505050905090565b6000818152606760205260408120546001600160a01b0316610a485760405162461bcd60e51b815260206004820152602c60248201527f4552433732313a20617070726f76656420717565727920666f72206e6f6e657860448201526b34b9ba32b73a103a37b5b2b760a11b60648201526084015b60405180910390fd5b506000908152606960205260409020546001600160a01b031690565b6000610a6f826110ff565b9050806001600160a01b0316836001600160a01b03161415610add5760405162461bcd60e51b815260206004820152602160248201527f4552433732313a20617070726f76616c20746f2063757272656e74206f776e656044820152603960f91b6064820152608401610a3f565b336001600160a01b0382161480610af95750610af98133610867565b610b6b5760405162461bcd60e51b815260206004820152603860248201527f4552433732313a20617070726f76652063616c6c6572206973206e6f74206f7760448201527f6e6572206e6f7220617070726f76656420666f7220616c6c00000000000000006064820152608401610a3f565b610b7583836120d1565b505050565b60c9546001600160a01b03163314610ba45760405162461bcd60e51b8152600401610a3f9061333a565b8051610bb89061012d906020840190612d29565b5050565b60606000610bc983611184565b905080610c03576040805160008082526020820190925290610bfb565b6060815260200190600190039081610be65790505b509392505050565b60008167ffffffffffffffff811115610c1e57610c1e612ebf565b604051908082528060200260200182016040528015610c5157816020015b6060815260200190600190039081610c3c5790505b50905060005b82811015610bfb576101396000610c6e8784610ee4565b81526020019081526020016000208054610c8790613305565b80601f0160208091040260200160405190810160405280929190818152602001828054610cb390613305565b8015610d005780601f10610cd557610100808354040283529160200191610d00565b820191906000526020600020905b815481529060010190602001808311610ce357829003601f168201915b5050505050828281518110610d1757610d1761336f565b60200260200101819052508080610d2d9061339b565b915050610c57565b50919050565b6101396020526000908152604090208054610d5590613305565b80601f0160208091040260200160405190810160405280929190818152602001828054610d8190613305565b8015610dce5780601f10610da357610100808354040283529160200191610dce565b820191906000526020600020905b815481529060010190602001808311610db157829003601f168201915b505050505081565b610de0338261213f565b610dfc5760405162461bcd60e51b8152600401610a3f906133b6565b610b75838383612236565b60c9546001600160a01b03163314610e315760405162461bcd60e51b8152600401610a3f9061333a565b600081118015610e44575061013a548111155b610e905760405162461bcd60e51b815260206004820181905260248201527f4e6f7420656e6f7567682072657365727665206c65667420666f72207465616d6044820152606401610a3f565b61013a54610e9e90826123e1565b61013a556000610ead60995490565b905060015b828111610ede57610ecc84610ec78385613407565b6123ed565b80610ed68161339b565b915050610eb2565b50505050565b6000610eef83611184565b8210610f515760405162461bcd60e51b815260206004820152602b60248201527f455243373231456e756d657261626c653a206f776e657220696e646578206f7560448201526a74206f6620626f756e647360a81b6064820152608401610a3f565b506001600160a01b03919091166000908152609760209081526040808320938352929052205490565b60c9546001600160a01b03163314610fa45760405162461bcd60e51b8152600401610a3f9061333a565b610138805460ff19811660ff90911615179055565b610b75838383604051806020016040528060008152506119a8565b60c9546001600160a01b03163314610ffe5760405162461bcd60e51b8152600401610a3f9061333a565b6001600160a01b0316600090815261013c60205260409020805460ff19169055565b61012d8054610d5590613305565b600061103960995490565b821061109c5760405162461bcd60e51b815260206004820152602c60248201527f455243373231456e756d657261626c653a20676c6f62616c20696e646578206f60448201526b7574206f6620626f756e647360a01b6064820152608401610a3f565b609982815481106110af576110af61336f565b90600052602060002001549050919050565b60c9546001600160a01b031633146110eb5760405162461bcd60e51b8152600401610a3f9061333a565b8051610bb89061013b906020840190612d29565b6000818152606760205260408120546001600160a01b0316806109325760405162461bcd60e51b815260206004820152602960248201527f4552433732313a206f776e657220717565727920666f72206e6f6e657869737460448201526832b73a103a37b5b2b760b91b6064820152608401610a3f565b61013b8054610d5590613305565b60006001600160a01b0382166111ef5760405162461bcd60e51b815260206004820152602a60248201527f4552433732313a2062616c616e636520717565727920666f7220746865207a65604482015269726f206164647265737360b01b6064820152608401610a3f565b506001600160a01b031660009081526068602052604090205490565b60c9546001600160a01b031633146112355760405162461bcd60e51b8152600401610a3f9061333a565b61123f6000612407565b565b6060600061124e83611184565b90508061126b576040805160008082526020820190925290610bfb565b60008167ffffffffffffffff81111561128657611286612ebf565b6040519080825280602002602001820160405280156112af578160200160208202803683370190505b50905060005b82811015610bfb576112c78582610ee4565b8282815181106112d9576112d961336f565b6020908102919091010152806112ee8161339b565b9150506112b5565b606061130160995490565b821061134f5760405162461bcd60e51b815260206004820152601f60248201527f43686f6f73652061206d696e7464726f707a2077697468696e2072616e6765006044820152606401610a3f565b600082815261013960205260409020805461136990613305565b80601f016020809104026020016040519081016040528092919081815260200182805461139590613305565b80156113e25780601f106113b7576101008083540402835291602001916113e2565b820191906000526020600020905b8154815290600101906020018083116113c557829003601f168201915b50505050509050919050565b600260fb5414156114415760405162461bcd60e51b815260206004820152601f60248201527f5265656e7472616e637947756172643a207265656e7472616e742063616c6c006044820152606401610a3f565b600260fb556101385460ff166114995760405162461bcd60e51b815260206004820152601f60248201527f53616c65206d7573742062652061637469766520746f206d696e74206e6674006044820152606401610a3f565b33600090815261013c602052604090205460ff166115175760405162461bcd60e51b815260206004820152603560248201527f536f7272792c20796f75277265206e6f742077686974656c69737465642e20506044820152746c6561736520747279205075626c69632053616c6560581b6064820152608401610a3f565b60008111801561152a5750610130548111155b6115805760405162461bcd60e51b815260206004820152602160248201527f43616e206f6e6c79206d696e7420323020746f6b656e7320617420612074696d6044820152606560f81b6064820152608401610a3f565b610131546115978261159160995490565b90612459565b11156115e55760405162461bcd60e51b815260206004820152601e60248201527f457863656564206d617820737570706c79206f66204d696e7464726f707a00006044820152606401610a3f565b610132546000906115f69083612465565b9050600061161d61013654611617610135548561246590919063ffffffff16565b90612471565b9050600061162c83600a612471565b905061163c816115918585612459565b34101561167c5760405162461bcd60e51b815260206004820152600e60248201526d125b9d985b1a5908185b5bdd5b9d60921b6044820152606401610a3f565b60006116948261168e858134896123e1565b906123e1565b604051909150339082156108fc029083906000818181858888f193505050501580156116c4573d6000803e3d6000fd5b50610133546001600160a01b03166108fc6116e5606461161787605a612465565b6116ef9087613407565b6040518115909202916000818181858888f19350505050158015611717573d6000803e3d6000fd5b50610134546040516001600160a01b039091169083156108fc029084906000818181858888f19350505050158015611753573d6000803e3d6000fd5b50600061175f60995490565b905060015b86811161178b5761177933610ec78385613407565b806117838161339b565b915050611764565b5050600160fb555050505050565b60c9546001600160a01b031633146117c35760405162461bcd60e51b8152600401610a3f9061333a565b6001600160a01b03811661180b5760405162461bcd60e51b815260206004820152600f60248201526e496e76616c6964206164647265737360881b6044820152606401610a3f565b61013380546001600160a01b0319166001600160a01b0392909216919091179055565b60c9546001600160a01b031633146118585760405162461bcd60e51b8152600401610a3f9061333a565b6064811015801561186a575061271081105b6118a05760405162461bcd60e51b8152602060048201526007602482015266125b9d985b1a5960ca1b6044820152606401610a3f565b61013555565b60606066805461094790613305565b61012e8054610d5590613305565b610bb833838361247d565b60c9546001600160a01b031633146118f85760405162461bcd60e51b8152600401610a3f9061333a565b6001600160a01b0316600090815261013c60205260409020805460ff19166001179055565b60c9546001600160a01b031633146119475760405162461bcd60e51b8152600401610a3f9061333a565b61012f5460ff16156119945760405162461bcd60e51b8152602060048201526016602482015275131a58d95b9cd948185b1c9958591e481b1bd8dad95960521b6044820152606401610a3f565b8051610bb89061012e906020840190612d29565b6119b2338361213f565b6119ce5760405162461bcd60e51b8152600401610a3f906133b6565b610ede8484848461254c565b60c9546001600160a01b03163314611a045760405162461bcd60e51b8152600401610a3f9061333a565b61012f805460ff191660011790556040517f62f90a81345309c0a5b98ec6aadd492d74210ffb25155d28619e8de313c80c5c90611a449061012e9061341f565b60405180910390a1565b6000818152606760205260409020546060906001600160a01b0316611acd5760405162461bcd60e51b815260206004820152602f60248201527f4552433732314d657461646174613a2055524920717565727920666f72206e6f60448201526e3732bc34b9ba32b73a103a37b5b2b760891b6064820152608401610a3f565b6000611ad761257f565b90506000815111611af75760405180602001604052806000815250611b22565b80611b018461258f565b604051602001611b129291906134a4565b6040516020818303038152906040525b9392505050565b60c9546001600160a01b03163314611b535760405162461bcd60e51b8152600401610a3f9061333a565b61013755565b6060611b6460995490565b8210611bb25760405162461bcd60e51b815260206004820152601f60248201527f43484f4f53452041204d494e5444524f505a2057495448494e2052414e4745006044820152606401610a3f565b61012e805461136990613305565b600054610100900460ff16611bdb5760005460ff1615611bdf565b303b155b611c425760405162461bcd60e51b815260206004820152602e60248201527f496e697469616c697a61626c653a20636f6e747261637420697320616c72656160448201526d191e481a5b9a5d1a585b1a5e995960921b6064820152608401610a3f565b600054610100900460ff16158015611c64576000805461ffff19166101011790555b60648310158015611c76575061271083105b611cac5760405162461bcd60e51b8152602060048201526007602482015266125b9d985b1a5960ca1b6044820152606401610a3f565b611cb68b8b61268d565b611cbe6126ce565b611cc6612705565b604080516020810191829052600090819052611ce59161012d91612d29565b50604080516020810191829052600090819052611d059161012e91612d29565b5061012f805460ff199081169091556101388054909116600117905561013089905561013188905561013287905561013686905561013a85905561013380546001600160a01b038087166001600160a01b0319928316179092556101358590556101348054928516929091169190911790558015611d89576000805461ff00191690555b5050505050505050505050565b33611da0836110ff565b6001600160a01b031614611e0b5760405162461bcd60e51b815260206004820152602c60248201527f4865792c20796f75722077616c6c657420646f65736e2774206f776e2074686960448201526b73206d696e7464726f707a2160a01b6064820152608401610a3f565b60008281526101396020526040908190209051600291611e2a916134d3565b602060405180830381855afa158015611e47573d6000803e3d6000fd5b5050506040513d601f19601f82011682018060405250810190611e6a9190613545565b600282604051611e7a919061355e565b602060405180830381855afa158015611e97573d6000803e3d6000fd5b5050506040513d601f19601f82011682018060405250810190611eba9190613545565b1415611f145760405162461bcd60e51b815260206004820152602360248201527f4e6577206e616d652069732073616d65206173207468652063757272656e74206044820152626f6e6560e81b6064820152608401610a3f565b6000828152610139602090815260409091208251611f3492840190612d29565b507f5e5f2e743cf97869ea7c8edbff51fc2ab09e3c1446e59561adfa638516e7a8f6338383604051611f689392919061357a565b60405180910390a15050565b60c9546001600160a01b03163314611f9e5760405162461bcd60e51b8152600401610a3f9061333a565b6001600160a01b0381166120035760405162461bcd60e51b815260206004820152602660248201527f4f776e61626c653a206e6577206f776e657220697320746865207a65726f206160448201526564647265737360d01b6064820152608401610a3f565b61200c81612407565b50565b60c9546001600160a01b031633146120395760405162461bcd60e51b8152600401610a3f9061333a565b60005b81811015610b7557600161013c600085858581811061205d5761205d61336f565b90506020020160208101906120729190612fa0565b6001600160a01b031681526020810191909152604001600020805460ff1916911515919091179055806120a48161339b565b91505061203c565b60006001600160e01b0319821663780e9d6360e01b1480610932575061093282612734565b600081815260696020526040902080546001600160a01b0319166001600160a01b0384169081179091558190612106826110ff565b6001600160a01b03167f8c5be1e5ebec7d5bd14f71427d1e84f3dd0314c0f7b2291e5b200ac8c7c3b92560405160405180910390a45050565b6000818152606760205260408120546001600160a01b03166121b85760405162461bcd60e51b815260206004820152602c60248201527f4552433732313a206f70657261746f7220717565727920666f72206e6f6e657860448201526b34b9ba32b73a103a37b5b2b760a11b6064820152608401610a3f565b60006121c3836110ff565b9050806001600160a01b0316846001600160a01b031614806121fe5750836001600160a01b03166121f3846109ca565b6001600160a01b0316145b8061222e57506001600160a01b038082166000908152606a602090815260408083209388168352929052205460ff165b949350505050565b826001600160a01b0316612249826110ff565b6001600160a01b0316146122b15760405162461bcd60e51b815260206004820152602960248201527f4552433732313a207472616e73666572206f6620746f6b656e2074686174206960448201526839903737ba1037bbb760b91b6064820152608401610a3f565b6001600160a01b0382166123135760405162461bcd60e51b8152602060048201526024808201527f4552433732313a207472616e7366657220746f20746865207a65726f206164646044820152637265737360e01b6064820152608401610a3f565b61231e838383612784565b6123296000826120d1565b6001600160a01b03831660009081526068602052604081208054600192906123529084906135aa565b90915550506001600160a01b0382166000908152606860205260408120805460019290612380908490613407565b909155505060008181526067602052604080822080546001600160a01b0319166001600160a01b0386811691821790925591518493918716917fddf252ad1be2c89b69c2b068fc378daa952ba7f163c4a11628f55a4df523b3ef91a4505050565b6000611b2282846135aa565b610bb882826040518060200160405280600081525061278f565b60c980546001600160a01b038381166001600160a01b0319831681179093556040519116919082907f8be0079c531659141344cd1fd0a4f28419497f9722a3daafe3b4186f6b6457e090600090a35050565b6000611b228284613407565b6000611b2282846135c1565b6000611b2282846135f6565b816001600160a01b0316836001600160a01b031614156124df5760405162461bcd60e51b815260206004820152601960248201527f4552433732313a20617070726f766520746f2063616c6c6572000000000000006044820152606401610a3f565b6001600160a01b038381166000818152606a6020908152604080832094871680845294825291829020805460ff191686151590811790915591519182527f17307eab39ab6107e8899845ad3d59bd9653f200f220920489ca2b5937696c31910160405180910390a3505050565b612557848484612236565b612563848484846127c2565b610ede5760405162461bcd60e51b8152600401610a3f9061360a565b606061013b805461094790613305565b6060816125b35750506040805180820190915260018152600360fc1b602082015290565b8160005b81156125dd57806125c78161339b565b91506125d69050600a836135f6565b91506125b7565b60008167ffffffffffffffff8111156125f8576125f8612ebf565b6040519080825280601f01601f191660200182016040528015612622576020820181803683370190505b5090505b841561222e576126376001836135aa565b9150612644600a8661365c565b61264f906030613407565b60f81b8183815181106126645761266461336f565b60200101906001600160f81b031916908160001a905350612686600a866135f6565b9450612626565b600054610100900460ff166126b45760405162461bcd60e51b8152600401610a3f90613670565b6126bc6128c0565b6126c46128c0565b610bb882826128e7565b600054610100900460ff166126f55760405162461bcd60e51b8152600401610a3f90613670565b6126fd6128c0565b61123f612935565b600054610100900460ff1661272c5760405162461bcd60e51b8152600401610a3f90613670565b61123f612965565b60006001600160e01b031982166380ac58cd60e01b148061276557506001600160e01b03198216635b5e139f60e01b145b8061093257506301ffc9a760e01b6001600160e01b0319831614610932565b610b75838383612993565b6127998383612a4b565b6127a660008484846127c2565b610b755760405162461bcd60e51b8152600401610a3f9061360a565b60006001600160a01b0384163b156128b557604051630a85bd0160e11b81526001600160a01b0385169063150b7a02906128069033908990889088906004016136bb565b6020604051808303816000875af1925050508015612841575060408051601f3d908101601f1916820190925261283e918101906136f8565b60015b61289b573d80801561286f576040519150601f19603f3d011682016040523d82523d6000602084013e612874565b606091505b5080516128935760405162461bcd60e51b8152600401610a3f9061360a565b805181602001fd5b6001600160e01b031916630a85bd0160e11b14905061222e565b506001949350505050565b600054610100900460ff1661123f5760405162461bcd60e51b8152600401610a3f90613670565b600054610100900460ff1661290e5760405162461bcd60e51b8152600401610a3f90613670565b8151612921906065906020850190612d29565b508051610b75906066906020840190612d29565b600054610100900460ff1661295c5760405162461bcd60e51b8152600401610a3f90613670565b61123f33612407565b600054610100900460ff1661298c5760405162461bcd60e51b8152600401610a3f90613670565b600160fb55565b6001600160a01b0383166129ee576129e981609980546000838152609a60205260408120829055600182018355919091527f72a152ddfb8e864297c917af52ea6c1c68aead0fee1a62673fcc7e0c94979d000155565b612a11565b816001600160a01b0316836001600160a01b031614612a1157612a118382612b99565b6001600160a01b038216612a2857610b7581612c36565b826001600160a01b0316826001600160a01b031614610b7557610b758282612ce5565b6001600160a01b038216612aa15760405162461bcd60e51b815260206004820181905260248201527f4552433732313a206d696e7420746f20746865207a65726f20616464726573736044820152606401610a3f565b6000818152606760205260409020546001600160a01b031615612b065760405162461bcd60e51b815260206004820152601c60248201527f4552433732313a20746f6b656e20616c7265616479206d696e746564000000006044820152606401610a3f565b612b1260008383612784565b6001600160a01b0382166000908152606860205260408120805460019290612b3b908490613407565b909155505060008181526067602052604080822080546001600160a01b0319166001600160a01b03861690811790915590518392907fddf252ad1be2c89b69c2b068fc378daa952ba7f163c4a11628f55a4df523b3ef908290a45050565b60006001612ba684611184565b612bb091906135aa565b600083815260986020526040902054909150808214612c03576001600160a01b03841660009081526097602090815260408083208584528252808320548484528184208190558352609890915290208190555b5060009182526098602090815260408084208490556001600160a01b039094168352609781528383209183525290812055565b609954600090612c48906001906135aa565b6000838152609a602052604081205460998054939450909284908110612c7057612c7061336f565b906000526020600020015490508060998381548110612c9157612c9161336f565b6000918252602080832090910192909255828152609a90915260408082208490558582528120556099805480612cc957612cc9613715565b6001900381819060005260206000200160009055905550505050565b6000612cf083611184565b6001600160a01b039093166000908152609760209081526040808320868452825280832085905593825260989052919091209190915550565b828054612d3590613305565b90600052602060002090601f016020900481019282612d575760008555612d9d565b82601f10612d7057805160ff1916838001178555612d9d565b82800160010185558215612d9d579182015b82811115612d9d578251825591602001919060010190612d82565b50612da9929150612dad565b5090565b5b80821115612da95760008155600101612dae565b6001600160e01b03198116811461200c57600080fd5b600060208284031215612dea57600080fd5b8135611b2281612dc2565b60005b83811015612e10578181015183820152602001612df8565b83811115610ede5750506000910152565b60008151808452612e39816020860160208601612df5565b601f01601f19169290920160200192915050565b602081526000611b226020830184612e21565b600060208284031215612e7257600080fd5b5035919050565b80356001600160a01b0381168114612e9057600080fd5b919050565b60008060408385031215612ea857600080fd5b612eb183612e79565b946020939093013593505050565b634e487b7160e01b600052604160045260246000fd5b600067ffffffffffffffff80841115612ef057612ef0612ebf565b604051601f8501601f19908116603f01168101908282118183101715612f1857612f18612ebf565b81604052809350858152868686011115612f3157600080fd5b858560208301376000602087830101525050509392505050565b600082601f830112612f5c57600080fd5b611b2283833560208501612ed5565b600060208284031215612f7d57600080fd5b813567ffffffffffffffff811115612f9457600080fd5b61222e84828501612f4b565b600060208284031215612fb257600080fd5b611b2282612e79565b6000602080830181845280855180835260408601915060408160051b870101925083870160005b8281101561301057603f19888603018452612ffe858351612e21565b94509285019290850190600101612fe2565b5092979650505050505050565b60008060006060848603121561303257600080fd5b61303b84612e79565b925061304960208501612e79565b9150604084013590509250925092565b6020808252825182820181905260009190848201906040850190845b8181101561309157835183529284019291840191600101613075565b50909695505050505050565b600080604083850312156130b057600080fd5b6130b983612e79565b9150602083013580151581146130ce57600080fd5b809150509250929050565b600080600080608085870312156130ef57600080fd5b6130f885612e79565b935061310660208601612e79565b925060408501359150606085013567ffffffffffffffff81111561312957600080fd5b8501601f8101871361313a57600080fd5b61314987823560208401612ed5565b91505092959194509250565b6000806000806000806000806000806101408b8d03121561317557600080fd5b8a3567ffffffffffffffff8082111561318d57600080fd5b6131998e838f01612f4b565b9b5060208d01359150808211156131af57600080fd5b506131bc8d828e01612f4b565b99505060408b0135975060608b0135965060808b0135955060a08b0135945060c08b013593506131ee60e08c01612e79565b92506101008b013591506132056101208c01612e79565b90509295989b9194979a5092959850565b6000806040838503121561322957600080fd5b61323283612e79565b915061324060208401612e79565b90509250929050565b6000806040838503121561325c57600080fd5b82359150602083013567ffffffffffffffff81111561327a57600080fd5b61328685828601612f4b565b9150509250929050565b600080602083850312156132a357600080fd5b823567ffffffffffffffff808211156132bb57600080fd5b818501915085601f8301126132cf57600080fd5b8135818111156132de57600080fd5b8660208260051b85010111156132f357600080fd5b60209290920196919550909350505050565b600181811c9082168061331957607f821691505b60208210811415610d3557634e487b7160e01b600052602260045260246000fd5b6020808252818101527f4f776e61626c653a2063616c6c6572206973206e6f7420746865206f776e6572604082015260600190565b634e487b7160e01b600052603260045260246000fd5b634e487b7160e01b600052601160045260246000fd5b60006000198214156133af576133af613385565b5060010190565b60208082526031908201527f4552433732313a207472616e736665722063616c6c6572206973206e6f74206f6040820152701ddb995c881b9bdc88185c1c1c9bdd9959607a1b606082015260800190565b6000821982111561341a5761341a613385565b500190565b600060208083526000845461343381613305565b80848701526040600180841660008114613454576001811461346857613496565b60ff19851689840152606089019550613496565b896000528660002060005b8581101561348e5781548b8201860152908301908801613473565b8a0184019650505b509398975050505050505050565b600083516134b6818460208801612df5565b8351908301906134ca818360208801612df5565b01949350505050565b60008083546134e181613305565b600182811680156134f9576001811461350a57613539565b60ff19841687528287019450613539565b8760005260208060002060005b858110156135305781548a820152908401908201613517565b50505082870194505b50929695505050505050565b60006020828403121561355757600080fd5b5051919050565b60008251613570818460208701612df5565b9190910192915050565b60018060a01b03841681528260208201526060604082015260006135a16060830184612e21565b95945050505050565b6000828210156135bc576135bc613385565b500390565b60008160001904831182151516156135db576135db613385565b500290565b634e487b7160e01b600052601260045260246000fd5b600082613605576136056135e0565b500490565b60208082526032908201527f4552433732313a207472616e7366657220746f206e6f6e20455243373231526560408201527131b2b4bb32b91034b6b83632b6b2b73a32b960711b606082015260800190565b60008261366b5761366b6135e0565b500690565b6020808252602b908201527f496e697469616c697a61626c653a20636f6e7472616374206973206e6f74206960408201526a6e697469616c697a696e6760a81b606082015260800190565b6001600160a01b03858116825284166020820152604081018390526080606082018190526000906136ee90830184612e21565b9695505050505050565b60006020828403121561370a57600080fd5b8151611b2281612dc2565b634e487b7160e01b600052603160045260246000fdfea2646970667358221220a4d4fc08661622245f9d66f5c9af9b8da2efc231fa1b9f0c4eb64c417791c07364736f6c634300080a0033a2646970667358221220ea932bffaeeabf70ce6b8c591b3e8e789e7549deb9fac4cbce0b3791f3fbf33b64736f6c634300080a0033",
  "linkReferences": {},
  "deployedLinkReferences": {}
}