{
  "_format": "hh-sol-artifact-1",
  "contractName": "MintdropzERC721V2",
  "sourceName": "contracts/MintdropzERC721V2.sol",
  "abi": [
    {
      "anonymous": false,
      "inputs": [
        {
          "indexed": true,
          "internalType": "address",
          "name": "owner",
          "type": "address"
        },
        {
          "indexed": true,
          "internalType": "address",
          "name": "approved",
          "type": "address"
        },
        {
          "indexed": true,
          "internalType": "uint256",
          "name": "tokenId",
          "type": "uint256"
        }
      ],
      "name": "Approval",
      "type": "event"
    },
    {
      "anonymous": false,
      "inputs": [
        {
          "indexed": true,
          "internalType": "address",
          "name": "owner",
          "type": "address"
        },
        {
          "indexed": true,
          "internalType": "address",
          "name": "operator",
          "type": "address"
        },
        {
          "indexed": false,
          "internalType": "bool",
          "name": "approved",
          "type": "bool"
        }
      ],
      "name": "ApprovalForAll",
      "type": "event"
    },
    {
      "anonymous": false,
      "inputs": [
        {
          "indexed": false,
          "internalType": "string",
          "name": "_licenseText",
          "type": "string"
        }
      ],
      "name": "LicenseisLocked",
      "type": "event"
    },
    {
      "anonymous": false,
      "inputs": [
        {
          "indexed": false,
          "internalType": "address",
          "name": "_by",
          "type": "address"
        },
        {
          "indexed": false,
          "internalType": "uint256",
          "name": "_tokenId",
          "type": "uint256"
        },
        {
          "indexed": false,
          "internalType": "string",
          "name": "_name",
          "type": "string"
        }
      ],
      "name": "MintdropzNameChange",
      "type": "event"
    },
    {
      "anonymous": false,
      "inputs": [
        {
          "indexed": true,
          "internalType": "address",
          "name": "previousOwner",
          "type": "address"
        },
        {
          "indexed": true,
          "internalType": "address",
          "name": "newOwner",
          "type": "address"
        }
      ],
      "name": "OwnershipTransferred",
      "type": "event"
    },
    {
      "anonymous": false,
      "inputs": [
        {
          "indexed": true,
          "internalType": "address",
          "name": "from",
          "type": "address"
        },
        {
          "indexed": true,
          "internalType": "address",
          "name": "to",
          "type": "address"
        },
        {
          "indexed": true,
          "internalType": "uint256",
          "name": "tokenId",
          "type": "uint256"
        }
      ],
      "name": "Transfer",
      "type": "event"
    },
    {
      "inputs": [],
      "name": "DENOMINATOR",
      "outputs": [
        {
          "internalType": "uint256",
          "name": "",
          "type": "uint256"
        }
      ],
      "stateMutability": "view",
      "type": "function"
    },
    {
      "inputs": [],
      "name": "LICENSE_TEXT",
      "outputs": [
        {
          "internalType": "string",
          "name": "",
          "type": "string"
        }
      ],
      "stateMutability": "view",
      "type": "function"
    },
    {
      "inputs": [],
      "name": "MAX_MINTDROPZ",
      "outputs": [
        {
          "internalType": "uint256",
          "name": "",
          "type": "uint256"
        }
      ],
      "stateMutability": "view",
      "type": "function"
    },
    {
      "inputs": [],
      "name": "MINTDROPZ_PROVENANCE",
      "outputs": [
        {
          "internalType": "string",
          "name": "",
          "type": "string"
        }
      ],
      "stateMutability": "view",
      "type": "function"
    },
    {
      "inputs": [
        {
          "internalType": "address",
          "name": "new_whitelister",
          "type": "address"
        }
      ],
      "name": "addwhitelister",
      "outputs": [],
      "stateMutability": "nonpayable",
      "type": "function"
    },
    {
      "inputs": [
        {
          "internalType": "address[]",
          "name": "list_whitelisters",
          "type": "address[]"
        }
      ],
      "name": "addwhitelisters",
      "outputs": [],
      "stateMutability": "nonpayable",
      "type": "function"
    },
    {
      "inputs": [
        {
          "internalType": "address",
          "name": "to",
          "type": "address"
        },
        {
          "internalType": "uint256",
          "name": "tokenId",
          "type": "uint256"
        }
      ],
      "name": "approve",
      "outputs": [],
      "stateMutability": "nonpayable",
      "type": "function"
    },
    {
      "inputs": [
        {
          "internalType": "address",
          "name": "owner",
          "type": "address"
        }
      ],
      "name": "balanceOf",
      "outputs": [
        {
          "internalType": "uint256",
          "name": "",
          "type": "uint256"
        }
      ],
      "stateMutability": "view",
      "type": "function"
    },
    {
      "inputs": [],
      "name": "baseURI",
      "outputs": [
        {
          "internalType": "string",
          "name": "",
          "type": "string"
        }
      ],
      "stateMutability": "view",
      "type": "function"
    },
    {
      "inputs": [
        {
          "internalType": "string",
          "name": "_license",
          "type": "string"
        }
      ],
      "name": "changeLicense",
      "outputs": [],
      "stateMutability": "nonpayable",
      "type": "function"
    },
    {
      "inputs": [
        {
          "internalType": "uint256",
          "name": "_tokenId",
          "type": "uint256"
        },
        {
          "internalType": "string",
          "name": "_name",
          "type": "string"
        }
      ],
      "name": "changeMintdropzName",
      "outputs": [],
      "stateMutability": "nonpayable",
      "type": "function"
    },
    {
      "inputs": [
        {
          "internalType": "uint256",
          "name": "_newRoyalty",
          "type": "uint256"
        }
      ],
      "name": "changeRoyaltyPercent",
      "outputs": [],
      "stateMutability": "nonpayable",
      "type": "function"
    },
    {
      "inputs": [
        {
          "internalType": "address",
          "name": "_newReceiver",
          "type": "address"
        }
      ],
      "name": "changeRoyaltyReceiver",
      "outputs": [],
      "stateMutability": "nonpayable",
      "type": "function"
    },
    {
      "inputs": [
        {
          "internalType": "address",
          "name": "delete_address",
          "type": "address"
        }
      ],
      "name": "deletwhitelister",
      "outputs": [],
      "stateMutability": "nonpayable",
      "type": "function"
    },
    {
      "inputs": [],
      "name": "factoryowner",
      "outputs": [
        {
          "internalType": "address",
          "name": "",
          "type": "address"
        }
      ],
      "stateMutability": "view",
      "type": "function"
    },
    {
      "inputs": [],
      "name": "flipPublicSale",
      "outputs": [],
      "stateMutability": "nonpayable",
      "type": "function"
    },
    {
      "inputs": [],
      "name": "flipSaleState",
      "outputs": [],
      "stateMutability": "nonpayable",
      "type": "function"
    },
    {
      "inputs": [
        {
          "internalType": "uint256",
          "name": "tokenId",
          "type": "uint256"
        }
      ],
      "name": "getApproved",
      "outputs": [
        {
          "internalType": "address",
          "name": "",
          "type": "address"
        }
      ],
      "stateMutability": "view",
      "type": "function"
    },
    {
      "inputs": [
        {
          "internalType": "string",
          "name": "_name",
          "type": "string"
        },
        {
          "internalType": "string",
          "name": "_symbol",
          "type": "string"
        },
        {
          "internalType": "uint256",
          "name": "_maxMintdropzPurchase",
          "type": "uint256"
        },
        {
          "internalType": "uint256",
          "name": "_MAX_MINTDROPZ",
          "type": "uint256"
        },
        {
          "internalType": "uint256",
          "name": "_mintdropzPrice",
          "type": "uint256"
        },
        {
          "internalType": "uint256",
          "name": "_DENOMINATOR",
          "type": "uint256"
        },
        {
          "internalType": "uint256",
          "name": "_mintdropzReserve",
          "type": "uint256"
        },
        {
          "internalType": "address",
          "name": "_royaltyReceiver",
          "type": "address"
        },
        {
          "internalType": "uint256",
          "name": "_royaltyPercent",
          "type": "uint256"
        },
        {
          "internalType": "address",
          "name": "_factoryowner",
          "type": "address"
        }
      ],
      "name": "initialize",
      "outputs": [],
      "stateMutability": "nonpayable",
      "type": "function"
    },
    {
      "inputs": [
        {
          "internalType": "address",
          "name": "owner",
          "type": "address"
        },
        {
          "internalType": "address",
          "name": "operator",
          "type": "address"
        }
      ],
      "name": "isApprovedForAll",
      "outputs": [
        {
          "internalType": "bool",
          "name": "",
          "type": "bool"
        }
      ],
      "stateMutability": "view",
      "type": "function"
    },
    {
      "inputs": [],
      "name": "lockLicense",
      "outputs": [],
      "stateMutability": "nonpayable",
      "type": "function"
    },
    {
      "inputs": [],
      "name": "maxMintdropzPurchase",
      "outputs": [
        {
          "internalType": "uint256",
          "name": "",
          "type": "uint256"
        }
      ],
      "stateMutability": "view",
      "type": "function"
    },
    {
      "inputs": [
        {
          "internalType": "uint256",
          "name": "numberOfTokens",
          "type": "uint256"
        }
      ],
      "name": "mintNFT",
      "outputs": [],
      "stateMutability": "payable",
      "type": "function"
    },
    {
      "inputs": [
        {
          "internalType": "uint256",
          "name": "",
          "type": "uint256"
        }
      ],
      "name": "mintdropzNames",
      "outputs": [
        {
          "internalType": "string",
          "name": "",
          "type": "string"
        }
      ],
      "stateMutability": "view",
      "type": "function"
    },
    {
      "inputs": [
        {
          "internalType": "address",
          "name": "_owner",
          "type": "address"
        }
      ],
      "name": "mintdropzNamesOfOwner",
      "outputs": [
        {
          "internalType": "string[]",
          "name": "",
          "type": "string[]"
        }
      ],
      "stateMutability": "view",
      "type": "function"
    },
    {
      "inputs": [],
      "name": "mintdropzPrice",
      "outputs": [
        {
          "internalType": "uint256",
          "name": "",
          "type": "uint256"
        }
      ],
      "stateMutability": "view",
      "type": "function"
    },
    {
      "inputs": [],
      "name": "mintdropzReserve",
      "outputs": [
        {
          "internalType": "uint256",
          "name": "",
          "type": "uint256"
        }
      ],
      "stateMutability": "view",
      "type": "function"
    },
    {
      "inputs": [],
      "name": "name",
      "outputs": [
        {
          "internalType": "string",
          "name": "",
          "type": "string"
        }
      ],
      "stateMutability": "view",
      "type": "function"
    },
    {
      "inputs": [],
      "name": "owner",
      "outputs": [
        {
          "internalType": "address",
          "name": "",
          "type": "address"
        }
      ],
      "stateMutability": "view",
      "type": "function"
    },
    {
      "inputs": [
        {
          "internalType": "uint256",
          "name": "tokenId",
          "type": "uint256"
        }
      ],
      "name": "ownerOf",
      "outputs": [
        {
          "internalType": "address",
          "name": "",
          "type": "address"
        }
      ],
      "stateMutability": "view",
      "type": "function"
    },
    {
      "inputs": [],
      "name": "publicsale",
      "outputs": [
        {
          "internalType": "bool",
          "name": "",
          "type": "bool"
        }
      ],
      "stateMutability": "view",
      "type": "function"
    },
    {
      "inputs": [],
      "name": "renounceOwnership",
      "outputs": [],
      "stateMutability": "nonpayable",
      "type": "function"
    },
    {
      "inputs": [
        {
          "internalType": "address",
          "name": "_to",
          "type": "address"
        },
        {
          "internalType": "uint256",
          "name": "_reserveAmount",
          "type": "uint256"
        }
      ],
      "name": "reserveMintdropz",
      "outputs": [],
      "stateMutability": "nonpayable",
      "type": "function"
    },
    {
      "inputs": [],
      "name": "royaltyPercent",
      "outputs": [
        {
          "internalType": "uint256",
          "name": "",
          "type": "uint256"
        }
      ],
      "stateMutability": "view",
      "type": "function"
    },
    {
      "inputs": [],
      "name": "royaltyReceiver",
      "outputs": [
        {
          "internalType": "address",
          "name": "",
          "type": "address"
        }
      ],
      "stateMutability": "view",
      "type": "function"
    },
    {
      "inputs": [
        {
          "internalType": "address",
          "name": "from",
          "type": "address"
        },
        {
          "internalType": "address",
          "name": "to",
          "type": "address"
        },
        {
          "internalType": "uint256",
          "name": "tokenId",
          "type": "uint256"
        }
      ],
      "name": "safeTransferFrom",
      "outputs": [],
      "stateMutability": "nonpayable",
      "type": "function"
    },
    {
      "inputs": [
        {
          "internalType": "address",
          "name": "from",
          "type": "address"
        },
        {
          "internalType": "address",
          "name": "to",
          "type": "address"
        },
        {
          "internalType": "uint256",
          "name": "tokenId",
          "type": "uint256"
        },
        {
          "internalType": "bytes",
          "name": "_data",
          "type": "bytes"
        }
      ],
      "name": "safeTransferFrom",
      "outputs": [],
      "stateMutability": "nonpayable",
      "type": "function"
    },
    {
      "inputs": [],
      "name": "saleIsActive",
      "outputs": [
        {
          "internalType": "bool",
          "name": "",
          "type": "bool"
        }
      ],
      "stateMutability": "view",
      "type": "function"
    },
    {
      "inputs": [
        {
          "internalType": "address",
          "name": "operator",
          "type": "address"
        },
        {
          "internalType": "bool",
          "name": "approved",
          "type": "bool"
        }
      ],
      "name": "setApprovalForAll",
      "outputs": [],
      "stateMutability": "nonpayable",
      "type": "function"
    },
    {
      "inputs": [
        {
          "internalType": "string",
          "name": "_newBaseURI",
          "type": "string"
        }
      ],
      "name": "setBaseURI",
      "outputs": [],
      "stateMutability": "nonpayable",
      "type": "function"
    },
    {
      "inputs": [
        {
          "internalType": "bytes32",
          "name": "_merkleTreeRoot",
          "type": "bytes32"
        }
      ],
      "name": "setMerkleTree",
      "outputs": [],
      "stateMutability": "nonpayable",
      "type": "function"
    },
    {
      "inputs": [
        {
          "internalType": "string",
          "name": "provenanceHash",
          "type": "string"
        }
      ],
      "name": "setProvenanceHash",
      "outputs": [],
      "stateMutability": "nonpayable",
      "type": "function"
    },
    {
      "inputs": [
        {
          "internalType": "bytes4",
          "name": "interfaceId",
          "type": "bytes4"
        }
      ],
      "name": "supportsInterface",
      "outputs": [
        {
          "internalType": "bool",
          "name": "",
          "type": "bool"
        }
      ],
      "stateMutability": "view",
      "type": "function"
    },
    {
      "inputs": [],
      "name": "symbol",
      "outputs": [
        {
          "internalType": "string",
          "name": "",
          "type": "string"
        }
      ],
      "stateMutability": "view",
      "type": "function"
    },
    {
      "inputs": [
        {
          "internalType": "uint256",
          "name": "index",
          "type": "uint256"
        }
      ],
      "name": "tokenByIndex",
      "outputs": [
        {
          "internalType": "uint256",
          "name": "",
          "type": "uint256"
        }
      ],
      "stateMutability": "view",
      "type": "function"
    },
    {
      "inputs": [
        {
          "internalType": "uint256",
          "name": "_id",
          "type": "uint256"
        }
      ],
      "name": "tokenLicense",
      "outputs": [
        {
          "internalType": "string",
          "name": "",
          "type": "string"
        }
      ],
      "stateMutability": "view",
      "type": "function"
    },
    {
      "inputs": [
        {
          "internalType": "address",
          "name": "owner",
          "type": "address"
        },
        {
          "internalType": "uint256",
          "name": "index",
          "type": "uint256"
        }
      ],
      "name": "tokenOfOwnerByIndex",
      "outputs": [
        {
          "internalType": "uint256",
          "name": "",
          "type": "uint256"
        }
      ],
      "stateMutability": "view",
      "type": "function"
    },
    {
      "inputs": [
        {
          "internalType": "uint256",
          "name": "tokenId",
          "type": "uint256"
        }
      ],
      "name": "tokenURI",
      "outputs": [
        {
          "internalType": "string",
          "name": "",
          "type": "string"
        }
      ],
      "stateMutability": "view",
      "type": "function"
    },
    {
      "inputs": [
        {
          "internalType": "address",
          "name": "_owner",
          "type": "address"
        }
      ],
      "name": "tokensOfOwner",
      "outputs": [
        {
          "internalType": "uint256[]",
          "name": "",
          "type": "uint256[]"
        }
      ],
      "stateMutability": "view",
      "type": "function"
    },
    {
      "inputs": [],
      "name": "totalSupply",
      "outputs": [
        {
          "internalType": "uint256",
          "name": "",
          "type": "uint256"
        }
      ],
      "stateMutability": "view",
      "type": "function"
    },
    {
      "inputs": [
        {
          "internalType": "address",
          "name": "from",
          "type": "address"
        },
        {
          "internalType": "address",
          "name": "to",
          "type": "address"
        },
        {
          "internalType": "uint256",
          "name": "tokenId",
          "type": "uint256"
        }
      ],
      "name": "transferFrom",
      "outputs": [],
      "stateMutability": "nonpayable",
      "type": "function"
    },
    {
      "inputs": [
        {
          "internalType": "address",
          "name": "newOwner",
          "type": "address"
        }
      ],
      "name": "transferOwnership",
      "outputs": [],
      "stateMutability": "nonpayable",
      "type": "function"
    },
    {
      "inputs": [
        {
          "internalType": "uint256",
          "name": "_tokenId",
          "type": "uint256"
        }
      ],
      "name": "viewMintdropzName",
      "outputs": [
        {
          "internalType": "string",
          "name": "",
          "type": "string"
        }
      ],
      "stateMutability": "view",
      "type": "function"
    }
  ],
  "bytecode": "0x608060405234801561001057600080fd5b50613793806100206000396000f3fe60806040526004361061031a5760003560e01c80638da5cb5b116101ab578063b09904b5116100f7578063e94f77df11610095578063efbd3a8b1161006f578063efbd3a8b1461091b578063f153bbc01461093b578063f2fde38b14610952578063f8e773691461097257600080fd5b8063e94f77df14610897578063e985e9c5146108b7578063eb8d24441461090057600080fd5b8063bf4702fc116100d1578063bf4702fc14610822578063c87b56dd14610837578063d1d6ff2314610857578063d9b137b21461087757600080fd5b8063b09904b5146107c2578063b88d4fde146107e2578063b94805a21461080257600080fd5b806395d89b41116101645780639f67756d1161013e5780639f67756d1461074a5780639fbc871314610761578063a22cb46514610782578063aee1642c146107a257600080fd5b806395d89b411461070957806398b1fa2d1461071e5780639c3e72bd1461073557600080fd5b80638da5cb5b1461066a578063918f867414610688578063926427441461069f57806392754a26146106b257806392bd6cb9146106d2578063938af856146106e957600080fd5b806346df85821161026a5780636c0360eb11610223578063751c8b1a116101fd578063751c8b1a146105e75780638462151c146106085780638808460514610635578063885bd3581461064a57600080fd5b80636c0360eb1461059d57806370a08231146105b2578063715018a6146105d257600080fd5b806346df8582146104f15780634f6660c6146105115780634f6ccce71461052657806355f804b314610546578063609cd0f4146105665780636352211e1461057d57600080fd5b806318160ddd116102d75780632bc9d930116102b15780632bc9d9301461047c5780632f745c591461049c57806334918dfd146104bc57806342842e0e146104d157600080fd5b806318160ddd1461041d5780631e971bdb1461043c57806323b872dd1461045c57600080fd5b806301ffc9a71461031f57806306fdde0314610354578063081812fc14610376578063095ea7b3146103ae57806310969523146103d057806314b69130146103f0575b600080fd5b34801561032b57600080fd5b5061033f61033a366004612e0a565b610992565b60405190151581526020015b60405180910390f35b34801561036057600080fd5b506103696109a3565b60405161034b9190612e7f565b34801561038257600080fd5b50610396610391366004612e92565b610a35565b6040516001600160a01b03909116815260200161034b565b3480156103ba57600080fd5b506103ce6103c9366004612ec7565b610acf565b005b3480156103dc57600080fd5b506103ce6103eb366004612f9d565b610be5565b3480156103fc57600080fd5b5061041061040b366004612fd2565b610c27565b60405161034b9190612fed565b34801561042957600080fd5b506099545b60405190815260200161034b565b34801561044857600080fd5b50610369610457366004612e92565b610da6565b34801561046857600080fd5b506103ce61047736600461304f565b610e41565b34801561048857600080fd5b506103ce610497366004612ec7565b610e72565b3480156104a857600080fd5b5061042e6104b7366004612ec7565b610f4f565b3480156104c857600080fd5b506103ce610fe5565b3480156104dd57600080fd5b506103ce6104ec36600461304f565b611024565b3480156104fd57600080fd5b506103ce61050c366004612fd2565b61103f565b34801561051d57600080fd5b5061036961108b565b34801561053257600080fd5b5061042e610541366004612e92565b611099565b34801561055257600080fd5b506103ce610561366004612f9d565b61112c565b34801561057257600080fd5b5061042e61013a5481565b34801561058957600080fd5b50610396610598366004612e92565b61116a565b3480156105a957600080fd5b506103696111e1565b3480156105be57600080fd5b5061042e6105cd366004612fd2565b6111ef565b3480156105de57600080fd5b506103ce611276565b3480156105f357600080fd5b5061013454610396906001600160a01b031681565b34801561061457600080fd5b50610628610623366004612fd2565b6112ac565b60405161034b919061308b565b34801561064157600080fd5b506103ce611361565b34801561065657600080fd5b50610369610665366004612e92565b6113a9565b34801561067657600080fd5b5060c9546001600160a01b0316610396565b34801561069457600080fd5b5061042e6101365481565b6103ce6106ad366004612e92565b6114a1565b3480156106be57600080fd5b506103ce6106cd366004612fd2565b61185c565b3480156106de57600080fd5b5061042e6101305481565b3480156106f557600080fd5b506103ce610704366004612e92565b6118f1565b34801561071557600080fd5b50610369611921565b34801561072a57600080fd5b5061042e6101325481565b34801561074157600080fd5b50610369611930565b34801561075657600080fd5b5061042e6101355481565b34801561076d57600080fd5b5061013354610396906001600160a01b031681565b34801561078e57600080fd5b506103ce61079d3660046130cf565b61193e565b3480156107ae57600080fd5b506103ce6107bd366004612fd2565b611949565b3480156107ce57600080fd5b506103ce6107dd366004612f9d565b611998565b3480156107ee57600080fd5b506103ce6107fd36600461310b565b611a23565b34801561080e57600080fd5b506101385461033f90610100900460ff1681565b34801561082e57600080fd5b506103ce611a55565b34801561084357600080fd5b50610369610852366004612e92565b611ac9565b34801561086357600080fd5b506103ce610872366004612e92565b611ba4565b34801561088357600080fd5b50610369610892366004612e92565b611bd4565b3480156108a357600080fd5b506103ce6108b2366004613187565b611c3b565b3480156108c357600080fd5b5061033f6108d2366004613248565b6001600160a01b039182166000908152606a6020908152604080832093909416825291909152205460ff1690565b34801561090c57600080fd5b506101385461033f9060ff1681565b34801561092757600080fd5b506103ce61093636600461327b565b611dc8565b34801561094757600080fd5b5061042e6101315481565b34801561095e57600080fd5b506103ce61096d366004612fd2565b611fa6565b34801561097e57600080fd5b506103ce61098d3660046132c2565b612041565b600061099d826120de565b92915050565b6060606580546109b290613337565b80601f01602080910402602001604051908101604052809291908181526020018280546109de90613337565b8015610a2b5780601f10610a0057610100808354040283529160200191610a2b565b820191906000526020600020905b815481529060010190602001808311610a0e57829003601f168201915b5050505050905090565b6000818152606760205260408120546001600160a01b0316610ab35760405162461bcd60e51b815260206004820152602c60248201527f4552433732313a20617070726f76656420717565727920666f72206e6f6e657860448201526b34b9ba32b73a103a37b5b2b760a11b60648201526084015b60405180910390fd5b506000908152606960205260409020546001600160a01b031690565b6000610ada8261116a565b9050806001600160a01b0316836001600160a01b03161415610b485760405162461bcd60e51b815260206004820152602160248201527f4552433732313a20617070726f76616c20746f2063757272656e74206f776e656044820152603960f91b6064820152608401610aaa565b336001600160a01b0382161480610b645750610b6481336108d2565b610bd65760405162461bcd60e51b815260206004820152603860248201527f4552433732313a20617070726f76652063616c6c6572206973206e6f74206f7760448201527f6e6572206e6f7220617070726f76656420666f7220616c6c00000000000000006064820152608401610aaa565b610be08383612103565b505050565b60c9546001600160a01b03163314610c0f5760405162461bcd60e51b8152600401610aaa9061336c565b8051610c239061012d906020840190612d5b565b5050565b60606000610c34836111ef565b905080610c6e576040805160008082526020820190925290610c66565b6060815260200190600190039081610c515790505b509392505050565b60008167ffffffffffffffff811115610c8957610c89612ef1565b604051908082528060200260200182016040528015610cbc57816020015b6060815260200190600190039081610ca75790505b50905060005b82811015610c66576101396000610cd98784610f4f565b81526020019081526020016000208054610cf290613337565b80601f0160208091040260200160405190810160405280929190818152602001828054610d1e90613337565b8015610d6b5780601f10610d4057610100808354040283529160200191610d6b565b820191906000526020600020905b815481529060010190602001808311610d4e57829003601f168201915b5050505050828281518110610d8257610d826133a1565b60200260200101819052508080610d98906133cd565b915050610cc2565b50919050565b6101396020526000908152604090208054610dc090613337565b80601f0160208091040260200160405190810160405280929190818152602001828054610dec90613337565b8015610e395780601f10610e0e57610100808354040283529160200191610e39565b820191906000526020600020905b815481529060010190602001808311610e1c57829003601f168201915b505050505081565b610e4b3382612171565b610e675760405162461bcd60e51b8152600401610aaa906133e8565b610be0838383612268565b60c9546001600160a01b03163314610e9c5760405162461bcd60e51b8152600401610aaa9061336c565b600081118015610eaf575061013a548111155b610efb5760405162461bcd60e51b815260206004820181905260248201527f4e6f7420656e6f7567682072657365727665206c65667420666f72207465616d6044820152606401610aaa565b61013a54610f099082612413565b61013a556000610f1860995490565b905060015b828111610f4957610f3784610f328385613439565b61241f565b80610f41816133cd565b915050610f1d565b50505050565b6000610f5a836111ef565b8210610fbc5760405162461bcd60e51b815260206004820152602b60248201527f455243373231456e756d657261626c653a206f776e657220696e646578206f7560448201526a74206f6620626f756e647360a81b6064820152608401610aaa565b506001600160a01b03919091166000908152609760209081526040808320938352929052205490565b60c9546001600160a01b0316331461100f5760405162461bcd60e51b8152600401610aaa9061336c565b610138805460ff19811660ff90911615179055565b610be083838360405180602001604052806000815250611a23565b60c9546001600160a01b031633146110695760405162461bcd60e51b8152600401610aaa9061336c565b6001600160a01b0316600090815261013c60205260409020805460ff19169055565b61012d8054610dc090613337565b60006110a460995490565b82106111075760405162461bcd60e51b815260206004820152602c60248201527f455243373231456e756d657261626c653a20676c6f62616c20696e646578206f60448201526b7574206f6620626f756e647360a01b6064820152608401610aaa565b6099828154811061111a5761111a6133a1565b90600052602060002001549050919050565b60c9546001600160a01b031633146111565760405162461bcd60e51b8152600401610aaa9061336c565b8051610c239061013b906020840190612d5b565b6000818152606760205260408120546001600160a01b03168061099d5760405162461bcd60e51b815260206004820152602960248201527f4552433732313a206f776e657220717565727920666f72206e6f6e657869737460448201526832b73a103a37b5b2b760b91b6064820152608401610aaa565b61013b8054610dc090613337565b60006001600160a01b03821661125a5760405162461bcd60e51b815260206004820152602a60248201527f4552433732313a2062616c616e636520717565727920666f7220746865207a65604482015269726f206164647265737360b01b6064820152608401610aaa565b506001600160a01b031660009081526068602052604090205490565b60c9546001600160a01b031633146112a05760405162461bcd60e51b8152600401610aaa9061336c565b6112aa6000612439565b565b606060006112b9836111ef565b9050806112d6576040805160008082526020820190925290610c66565b60008167ffffffffffffffff8111156112f1576112f1612ef1565b60405190808252806020026020018201604052801561131a578160200160208202803683370190505b50905060005b82811015610c66576113328582610f4f565b828281518110611344576113446133a1565b602090810291909101015280611359816133cd565b915050611320565b60c9546001600160a01b0316331461138b5760405162461bcd60e51b8152600401610aaa9061336c565b610138805461ff001981166101009182900460ff1615909102179055565b60606113b460995490565b82106114025760405162461bcd60e51b815260206004820152601f60248201527f43686f6f73652061206d696e7464726f707a2077697468696e2072616e6765006044820152606401610aaa565b600082815261013960205260409020805461141c90613337565b80601f016020809104026020016040519081016040528092919081815260200182805461144890613337565b80156114955780601f1061146a57610100808354040283529160200191611495565b820191906000526020600020905b81548152906001019060200180831161147857829003601f168201915b50505050509050919050565b600260fb5414156114f45760405162461bcd60e51b815260206004820152601f60248201527f5265656e7472616e637947756172643a207265656e7472616e742063616c6c006044820152606401610aaa565b600260fb5561013854610100900460ff166115875733600090815261013c602052604090205460ff166115875760405162461bcd60e51b815260206004820152603560248201527f536f7272792c20796f75277265206e6f742077686974656c69737465642e20506044820152746c6561736520747279205075626c69632053616c6560581b6064820152608401610aaa565b6101385460ff166115da5760405162461bcd60e51b815260206004820152601f60248201527f53616c65206d7573742062652061637469766520746f206d696e74206e6674006044820152606401610aaa565b6000811180156115ed5750610130548111155b6116435760405162461bcd60e51b815260206004820152602160248201527f43616e206f6e6c79206d696e7420323020746f6b656e7320617420612074696d6044820152606560f81b6064820152608401610aaa565b6101315461165a8261165460995490565b9061248b565b11156116a85760405162461bcd60e51b815260206004820152601e60248201527f457863656564206d617820737570706c79206f66204d696e7464726f707a00006044820152606401610aaa565b610132546000906116b99083612497565b905060006116e0610136546116da610135548561249790919063ffffffff16565b906124a3565b905060006116ef83600a6124a3565b90506116ff81611654858561248b565b34101561173f5760405162461bcd60e51b815260206004820152600e60248201526d125b9d985b1a5908185b5bdd5b9d60921b6044820152606401610aaa565b60006117578261175185813489612413565b90612413565b604051909150339082156108fc029083906000818181858888f19350505050158015611787573d6000803e3d6000fd5b50610133546001600160a01b03166108fc6117a860646116da87605a612497565b6117b29087613439565b6040518115909202916000818181858888f193505050501580156117da573d6000803e3d6000fd5b50610134546040516001600160a01b039091169083156108fc029084906000818181858888f19350505050158015611816573d6000803e3d6000fd5b50600061182260995490565b905060015b86811161184e5761183c33610f328385613439565b80611846816133cd565b915050611827565b5050600160fb555050505050565b60c9546001600160a01b031633146118865760405162461bcd60e51b8152600401610aaa9061336c565b6001600160a01b0381166118ce5760405162461bcd60e51b815260206004820152600f60248201526e496e76616c6964206164647265737360881b6044820152606401610aaa565b61013380546001600160a01b0319166001600160a01b0392909216919091179055565b60c9546001600160a01b0316331461191b5760405162461bcd60e51b8152600401610aaa9061336c565b61013555565b6060606680546109b290613337565b61012e8054610dc090613337565b610c233383836124af565b60c9546001600160a01b031633146119735760405162461bcd60e51b8152600401610aaa9061336c565b6001600160a01b0316600090815261013c60205260409020805460ff19166001179055565b60c9546001600160a01b031633146119c25760405162461bcd60e51b8152600401610aaa9061336c565b61012f5460ff1615611a0f5760405162461bcd60e51b8152602060048201526016602482015275131a58d95b9cd948185b1c9958591e481b1bd8dad95960521b6044820152606401610aaa565b8051610c239061012e906020840190612d5b565b611a2d3383612171565b611a495760405162461bcd60e51b8152600401610aaa906133e8565b610f498484848461257e565b60c9546001600160a01b03163314611a7f5760405162461bcd60e51b8152600401610aaa9061336c565b61012f805460ff191660011790556040517f62f90a81345309c0a5b98ec6aadd492d74210ffb25155d28619e8de313c80c5c90611abf9061012e90613451565b60405180910390a1565b6000818152606760205260409020546060906001600160a01b0316611b485760405162461bcd60e51b815260206004820152602f60248201527f4552433732314d657461646174613a2055524920717565727920666f72206e6f60448201526e3732bc34b9ba32b73a103a37b5b2b760891b6064820152608401610aaa565b6000611b526125b1565b90506000815111611b725760405180602001604052806000815250611b9d565b80611b7c846125c1565b604051602001611b8d9291906134d6565b6040516020818303038152906040525b9392505050565b60c9546001600160a01b03163314611bce5760405162461bcd60e51b8152600401610aaa9061336c565b61013755565b6060611bdf60995490565b8210611c2d5760405162461bcd60e51b815260206004820152601f60248201527f43484f4f53452041204d494e5444524f505a2057495448494e2052414e4745006044820152606401610aaa565b61012e805461141c90613337565b600054610100900460ff16611c565760005460ff1615611c5a565b303b155b611cbd5760405162461bcd60e51b815260206004820152602e60248201527f496e697469616c697a61626c653a20636f6e747261637420697320616c72656160448201526d191e481a5b9a5d1a585b1a5e995960921b6064820152608401610aaa565b600054610100900460ff16158015611cdf576000805461ffff19166101011790555b611ce98b8b6126bf565b611cf1612700565b611cf9612737565b604080516020810191829052600090819052611d189161012d91612d5b565b50604080516020810191829052600090819052611d389161012e91612d5b565b5061012f805460ff19169055610138805461ffff1916600117905561013089905561013188905561013287905561013686905561013a85905561013380546001600160a01b038087166001600160a01b0319928316179092556101358590556101348054928516929091169190911790558015611dbb576000805461ff00191690555b5050505050505050505050565b33611dd28361116a565b6001600160a01b031614611e3d5760405162461bcd60e51b815260206004820152602c60248201527f4865792c20796f75722077616c6c657420646f65736e2774206f776e2074686960448201526b73206d696e7464726f707a2160a01b6064820152608401610aaa565b60008281526101396020526040908190209051600291611e5c91613505565b602060405180830381855afa158015611e79573d6000803e3d6000fd5b5050506040513d601f19601f82011682018060405250810190611e9c9190613577565b600282604051611eac9190613590565b602060405180830381855afa158015611ec9573d6000803e3d6000fd5b5050506040513d601f19601f82011682018060405250810190611eec9190613577565b1415611f465760405162461bcd60e51b815260206004820152602360248201527f4e6577206e616d652069732073616d65206173207468652063757272656e74206044820152626f6e6560e81b6064820152608401610aaa565b6000828152610139602090815260409091208251611f6692840190612d5b565b507f5e5f2e743cf97869ea7c8edbff51fc2ab09e3c1446e59561adfa638516e7a8f6338383604051611f9a939291906135ac565b60405180910390a15050565b60c9546001600160a01b03163314611fd05760405162461bcd60e51b8152600401610aaa9061336c565b6001600160a01b0381166120355760405162461bcd60e51b815260206004820152602660248201527f4f776e61626c653a206e6577206f776e657220697320746865207a65726f206160448201526564647265737360d01b6064820152608401610aaa565b61203e81612439565b50565b60c9546001600160a01b0316331461206b5760405162461bcd60e51b8152600401610aaa9061336c565b60005b81811015610be057600161013c600085858581811061208f5761208f6133a1565b90506020020160208101906120a49190612fd2565b6001600160a01b031681526020810191909152604001600020805460ff1916911515919091179055806120d6816133cd565b91505061206e565b60006001600160e01b0319821663780e9d6360e01b148061099d575061099d82612766565b600081815260696020526040902080546001600160a01b0319166001600160a01b03841690811790915581906121388261116a565b6001600160a01b03167f8c5be1e5ebec7d5bd14f71427d1e84f3dd0314c0f7b2291e5b200ac8c7c3b92560405160405180910390a45050565b6000818152606760205260408120546001600160a01b03166121ea5760405162461bcd60e51b815260206004820152602c60248201527f4552433732313a206f70657261746f7220717565727920666f72206e6f6e657860448201526b34b9ba32b73a103a37b5b2b760a11b6064820152608401610aaa565b60006121f58361116a565b9050806001600160a01b0316846001600160a01b031614806122305750836001600160a01b031661222584610a35565b6001600160a01b0316145b8061226057506001600160a01b038082166000908152606a602090815260408083209388168352929052205460ff165b949350505050565b826001600160a01b031661227b8261116a565b6001600160a01b0316146122e35760405162461bcd60e51b815260206004820152602960248201527f4552433732313a207472616e73666572206f6620746f6b656e2074686174206960448201526839903737ba1037bbb760b91b6064820152608401610aaa565b6001600160a01b0382166123455760405162461bcd60e51b8152602060048201526024808201527f4552433732313a207472616e7366657220746f20746865207a65726f206164646044820152637265737360e01b6064820152608401610aaa565b6123508383836127b6565b61235b600082612103565b6001600160a01b03831660009081526068602052604081208054600192906123849084906135dc565b90915550506001600160a01b03821660009081526068602052604081208054600192906123b2908490613439565b909155505060008181526067602052604080822080546001600160a01b0319166001600160a01b0386811691821790925591518493918716917fddf252ad1be2c89b69c2b068fc378daa952ba7f163c4a11628f55a4df523b3ef91a4505050565b6000611b9d82846135dc565b610c238282604051806020016040528060008152506127c1565b60c980546001600160a01b038381166001600160a01b0319831681179093556040519116919082907f8be0079c531659141344cd1fd0a4f28419497f9722a3daafe3b4186f6b6457e090600090a35050565b6000611b9d8284613439565b6000611b9d82846135f3565b6000611b9d8284613628565b816001600160a01b0316836001600160a01b031614156125115760405162461bcd60e51b815260206004820152601960248201527f4552433732313a20617070726f766520746f2063616c6c6572000000000000006044820152606401610aaa565b6001600160a01b038381166000818152606a6020908152604080832094871680845294825291829020805460ff191686151590811790915591519182527f17307eab39ab6107e8899845ad3d59bd9653f200f220920489ca2b5937696c31910160405180910390a3505050565b612589848484612268565b612595848484846127f4565b610f495760405162461bcd60e51b8152600401610aaa9061363c565b606061013b80546109b290613337565b6060816125e55750506040805180820190915260018152600360fc1b602082015290565b8160005b811561260f57806125f9816133cd565b91506126089050600a83613628565b91506125e9565b60008167ffffffffffffffff81111561262a5761262a612ef1565b6040519080825280601f01601f191660200182016040528015612654576020820181803683370190505b5090505b8415612260576126696001836135dc565b9150612676600a8661368e565b612681906030613439565b60f81b818381518110612696576126966133a1565b60200101906001600160f81b031916908160001a9053506126b8600a86613628565b9450612658565b600054610100900460ff166126e65760405162461bcd60e51b8152600401610aaa906136a2565b6126ee6128f2565b6126f66128f2565b610c238282612919565b600054610100900460ff166127275760405162461bcd60e51b8152600401610aaa906136a2565b61272f6128f2565b6112aa612967565b600054610100900460ff1661275e5760405162461bcd60e51b8152600401610aaa906136a2565b6112aa612997565b60006001600160e01b031982166380ac58cd60e01b148061279757506001600160e01b03198216635b5e139f60e01b145b8061099d57506301ffc9a760e01b6001600160e01b031983161461099d565b610be08383836129c5565b6127cb8383612a7d565b6127d860008484846127f4565b610be05760405162461bcd60e51b8152600401610aaa9061363c565b60006001600160a01b0384163b156128e757604051630a85bd0160e11b81526001600160a01b0385169063150b7a02906128389033908990889088906004016136ed565b6020604051808303816000875af1925050508015612873575060408051601f3d908101601f191682019092526128709181019061372a565b60015b6128cd573d8080156128a1576040519150601f19603f3d011682016040523d82523d6000602084013e6128a6565b606091505b5080516128c55760405162461bcd60e51b8152600401610aaa9061363c565b805181602001fd5b6001600160e01b031916630a85bd0160e11b149050612260565b506001949350505050565b600054610100900460ff166112aa5760405162461bcd60e51b8152600401610aaa906136a2565b600054610100900460ff166129405760405162461bcd60e51b8152600401610aaa906136a2565b8151612953906065906020850190612d5b565b508051610be0906066906020840190612d5b565b600054610100900460ff1661298e5760405162461bcd60e51b8152600401610aaa906136a2565b6112aa33612439565b600054610100900460ff166129be5760405162461bcd60e51b8152600401610aaa906136a2565b600160fb55565b6001600160a01b038316612a2057612a1b81609980546000838152609a60205260408120829055600182018355919091527f72a152ddfb8e864297c917af52ea6c1c68aead0fee1a62673fcc7e0c94979d000155565b612a43565b816001600160a01b0316836001600160a01b031614612a4357612a438382612bcb565b6001600160a01b038216612a5a57610be081612c68565b826001600160a01b0316826001600160a01b031614610be057610be08282612d17565b6001600160a01b038216612ad35760405162461bcd60e51b815260206004820181905260248201527f4552433732313a206d696e7420746f20746865207a65726f20616464726573736044820152606401610aaa565b6000818152606760205260409020546001600160a01b031615612b385760405162461bcd60e51b815260206004820152601c60248201527f4552433732313a20746f6b656e20616c7265616479206d696e746564000000006044820152606401610aaa565b612b44600083836127b6565b6001600160a01b0382166000908152606860205260408120805460019290612b6d908490613439565b909155505060008181526067602052604080822080546001600160a01b0319166001600160a01b03861690811790915590518392907fddf252ad1be2c89b69c2b068fc378daa952ba7f163c4a11628f55a4df523b3ef908290a45050565b60006001612bd8846111ef565b612be291906135dc565b600083815260986020526040902054909150808214612c35576001600160a01b03841660009081526097602090815260408083208584528252808320548484528184208190558352609890915290208190555b5060009182526098602090815260408084208490556001600160a01b039094168352609781528383209183525290812055565b609954600090612c7a906001906135dc565b6000838152609a602052604081205460998054939450909284908110612ca257612ca26133a1565b906000526020600020015490508060998381548110612cc357612cc36133a1565b6000918252602080832090910192909255828152609a90915260408082208490558582528120556099805480612cfb57612cfb613747565b6001900381819060005260206000200160009055905550505050565b6000612d22836111ef565b6001600160a01b039093166000908152609760209081526040808320868452825280832085905593825260989052919091209190915550565b828054612d6790613337565b90600052602060002090601f016020900481019282612d895760008555612dcf565b82601f10612da257805160ff1916838001178555612dcf565b82800160010185558215612dcf579182015b82811115612dcf578251825591602001919060010190612db4565b50612ddb929150612ddf565b5090565b5b80821115612ddb5760008155600101612de0565b6001600160e01b03198116811461203e57600080fd5b600060208284031215612e1c57600080fd5b8135611b9d81612df4565b60005b83811015612e42578181015183820152602001612e2a565b83811115610f495750506000910152565b60008151808452612e6b816020860160208601612e27565b601f01601f19169290920160200192915050565b602081526000611b9d6020830184612e53565b600060208284031215612ea457600080fd5b5035919050565b80356001600160a01b0381168114612ec257600080fd5b919050565b60008060408385031215612eda57600080fd5b612ee383612eab565b946020939093013593505050565b634e487b7160e01b600052604160045260246000fd5b600067ffffffffffffffff80841115612f2257612f22612ef1565b604051601f8501601f19908116603f01168101908282118183101715612f4a57612f4a612ef1565b81604052809350858152868686011115612f6357600080fd5b858560208301376000602087830101525050509392505050565b600082601f830112612f8e57600080fd5b611b9d83833560208501612f07565b600060208284031215612faf57600080fd5b813567ffffffffffffffff811115612fc657600080fd5b61226084828501612f7d565b600060208284031215612fe457600080fd5b611b9d82612eab565b6000602080830181845280855180835260408601915060408160051b870101925083870160005b8281101561304257603f19888603018452613030858351612e53565b94509285019290850190600101613014565b5092979650505050505050565b60008060006060848603121561306457600080fd5b61306d84612eab565b925061307b60208501612eab565b9150604084013590509250925092565b6020808252825182820181905260009190848201906040850190845b818110156130c3578351835292840192918401916001016130a7565b50909695505050505050565b600080604083850312156130e257600080fd5b6130eb83612eab565b91506020830135801515811461310057600080fd5b809150509250929050565b6000806000806080858703121561312157600080fd5b61312a85612eab565b935061313860208601612eab565b925060408501359150606085013567ffffffffffffffff81111561315b57600080fd5b8501601f8101871361316c57600080fd5b61317b87823560208401612f07565b91505092959194509250565b6000806000806000806000806000806101408b8d0312156131a757600080fd5b8a3567ffffffffffffffff808211156131bf57600080fd5b6131cb8e838f01612f7d565b9b5060208d01359150808211156131e157600080fd5b506131ee8d828e01612f7d565b99505060408b0135975060608b0135965060808b0135955060a08b0135945060c08b0135935061322060e08c01612eab565b92506101008b013591506132376101208c01612eab565b90509295989b9194979a5092959850565b6000806040838503121561325b57600080fd5b61326483612eab565b915061327260208401612eab565b90509250929050565b6000806040838503121561328e57600080fd5b82359150602083013567ffffffffffffffff8111156132ac57600080fd5b6132b885828601612f7d565b9150509250929050565b600080602083850312156132d557600080fd5b823567ffffffffffffffff808211156132ed57600080fd5b818501915085601f83011261330157600080fd5b81358181111561331057600080fd5b8660208260051b850101111561332557600080fd5b60209290920196919550909350505050565b600181811c9082168061334b57607f821691505b60208210811415610da057634e487b7160e01b600052602260045260246000fd5b6020808252818101527f4f776e61626c653a2063616c6c6572206973206e6f7420746865206f776e6572604082015260600190565b634e487b7160e01b600052603260045260246000fd5b634e487b7160e01b600052601160045260246000fd5b60006000198214156133e1576133e16133b7565b5060010190565b60208082526031908201527f4552433732313a207472616e736665722063616c6c6572206973206e6f74206f6040820152701ddb995c881b9bdc88185c1c1c9bdd9959607a1b606082015260800190565b6000821982111561344c5761344c6133b7565b500190565b600060208083526000845461346581613337565b80848701526040600180841660008114613486576001811461349a576134c8565b60ff198516898401526060890195506134c8565b896000528660002060005b858110156134c05781548b82018601529083019088016134a5565b8a0184019650505b509398975050505050505050565b600083516134e8818460208801612e27565b8351908301906134fc818360208801612e27565b01949350505050565b600080835461351381613337565b6001828116801561352b576001811461353c5761356b565b60ff1984168752828701945061356b565b8760005260208060002060005b858110156135625781548a820152908401908201613549565b50505082870194505b50929695505050505050565b60006020828403121561358957600080fd5b5051919050565b600082516135a2818460208701612e27565b9190910192915050565b60018060a01b03841681528260208201526060604082015260006135d36060830184612e53565b95945050505050565b6000828210156135ee576135ee6133b7565b500390565b600081600019048311821515161561360d5761360d6133b7565b500290565b634e487b7160e01b600052601260045260246000fd5b60008261363757613637613612565b500490565b60208082526032908201527f4552433732313a207472616e7366657220746f206e6f6e20455243373231526560408201527131b2b4bb32b91034b6b83632b6b2b73a32b960711b606082015260800190565b60008261369d5761369d613612565b500690565b6020808252602b908201527f496e697469616c697a61626c653a20636f6e7472616374206973206e6f74206960408201526a6e697469616c697a696e6760a81b606082015260800190565b6001600160a01b038581168252841660208201526040810183905260806060820181905260009061372090830184612e53565b9695505050505050565b60006020828403121561373c57600080fd5b8151611b9d81612df4565b634e487b7160e01b600052603160045260246000fdfea26469706673582212200a3855b4e7cfe6796b17b6d1817f0c266bdb9f3c8e62bf79f88855e3bfd626ff64736f6c634300080a0033",
  "linkReferences": {},
  "deployedLinkReferences": {}
}